:020000040800F2
:10000000B80F0020D9000008E100000881100008A6
:1000100000000000000000000000000000000000E0
:10002000000000000000000000000000E5000008E3
:100030000000000000000000E7000008754500080F
:10004000EB000008EB000008EB000008EB000008E4
:10005000EB000008EB000008EB000008210B000893
:10006000EB000008C1070008D5070008F9070008E1
:10007000EB00000875460008EB000008C1460008C8
:10008000EB000008EB000008EB000008EB000008A4
:10009000EB000008EB000008EB000008EB00000894
:1000A000EB000008EB000008EB000008914C000892
:1000B000EB000008EB000008EB000008EB00000874
:1000C0000448854600F0F2F800480047654E0008F5
:1000D000C046C046B80F0020044880470448004787
:1000E000FEE7FEE7FEE7FEE7FEE7FEE771460008F3
:1000F000C10000080022027011460C234B431B185C
:100100005A60491C9A60C9B2DA600529F5D3704774
:10011000F7B586B0069900200B560293079900297F
:1001200000DC49420491002A02D0012A03D005E0F4
:10013000002009B0F0BD079809B0F0BD0C21069B66
:100140004143C918C96891421FD1411C21D00C21DB
:100150004843C1188D684868049A83B291B20C462E
:100160005C43120C5343240C000C1B199CB24143FA
:1001700009194243080C1B0CC01810180799284194
:100180000029D9DC404209B0F0BD401C40B205282E
:10019000D4DB01920392002A01DA544200E01446B3
:1001A0000120D10FC0070D182146284600F041F864
:1001B000691A491E1F25E807009100F03AF80099D6
:1001C00006464843E9070F1A2146E80700F031F8D0
:1001D00001466143EA07511A009A76007F006D1CC0
:1001E000974201D3BF1A761C40004900A14201D3B7
:1001F000091B401C621A9642EED3964201D1002F91
:10020000EAD00199401C002900DA4042029A0C23EE
:100210005A43069B0399D218203D9560D1605060E7
:100220000299491C49B2052900DB0021069A117088
:1002300092E730B50B46014600202022012409E058
:100240000D46D5409D4205D31D469540491B254688
:10025000954040191546521E002DF1DC30BD70B599
:1002600000242546002801DA01244042002901DA51
:1002700001254942FFF7DDFFAC4200D04042002C8F
:1002800000D0494270BD03460B439B0703D009E0F1
:1002900008C9121F08C0042AFAD203E00B780370C1
:1002A000401C491C521EF9D270470000064C012523
:1002B000064E05E0E36807CC2B430C3C984710340E
:1002C000B442F7D3FFF700FFA4740008C474000819
:1002D00070B58C180578401C6B075B0F01D1037853
:1002E000401C2A1106D10278401C03E006780E70EB
:1002F000401C491C5B1EF9D12B0705D40023521E5C
:100300000DD40B70491CFAE70378401CCB1A921CE1
:1003100003E01D780D70491C5B1C521EF9D5A142EB
:10032000D8D3002070BDF8B50121C2698C465106B2
:10033000490F0091437F017F9C06D3024030120198
:10034000C67BC909A40E5B0E520E8E4200D30E4628
:10035000C673057CA54200D325460574477C9F42A1
:1003600000D31F464774BE46877C974200D317468A
:100370008774B14209D1AC4207D89E4505D1974256
:1003800003D1C07C0099814201D0002084466046A0
:10039000F8BD30B400224D210A5401464469C36BB4
:1003A0002046042230BC1C311847000070B50446BA
:1003B0004034627B00210125002A04D0012A01D1AA
:1003C0006173657270BDC169194ACBB2D35C0E040A
:1003D000360E5E40935D0E02360E5E40935D0E0E4D
:1003E0005E40925D002A01D004201DE0027F1207CA
:1003F000120FA273052A19D0062A17D0092A01D094
:10040000A57270BDC903C90CA1800FD0E2889142CA
:1004100009D8E27B436952008A18C66B8169184685
:10042000B047657370BD0220A07270BD657270BD6B
:10043000DC56000870B50446203422790021032AD6
:100440000AD0026B9171A27B0325022A06D0227981
:10045000022A0ED0016370BD2171F4E701462831F4
:1004600001634669828D036C816A30469847A573A3
:1004700070BD04634369066C042221461846B047E8
:10048000257170BDF8B50646002000900027F06980
:1004900035460F8040356A7A34462034002A79D0B8
:1004A00000226A722A7B37464F37002A05D036234E
:1004B000012A32D0022A53D16DE0A97B052902D04E
:1004C000062912D097E03046FFF72DFF002831D0E3
:1004D000687C41012031B181A97C01208A01F2812F
:1004E000297C49012031E98023E0297A2246CC0782
:1004F000E97AE40F0D07A701062100013943E40161
:10050000030C21432C0D21431B031943116030467A
:100510000423002100F08AF86DE0A97B052902D0B0
:1005200006291ED067E03046FFF7FDFE002841D0C7
:1005300000E0287339793B780901DB01491D194333
:100540007B7830461B021943BB7822469B03194334
:10055000FB785B05194321600423002100F066F855
:1005600049E022462C7A0001E407010CE40FA001C7
:10057000EF7A03433F07E4012343380D03430803A5
:100580000343136004230021304600F04FF802209B
:10059000287330E036E0A87B052804D006280BD06D
:1005A00009281FD027E03046FFF7BDFE002801D004
:1005B0000120BEE70020BCE722462C7AED7AE40752
:1005C000E40FA7013B43E401717F2D0723432C0D6A
:1005D000234309030B43136030460423002100F03A
:1005E00025F808E0287A401C287201203074A88879
:1005F0000880B069009004223146F36B1C317069A9
:10060000984711E0A97A00290ED00B0209040F3394
:100610000B432360304622460423002100F006F8F5
:10062000AF72B16B706988470098F8BDF8B5154690
:100630001268214E9E46D7B2F75D13041B0E5F4031
:10064000F75D13021B0E5F40F35D1601360F5E402F
:100650001A4B00249B5D1B071A432A6072B60246A0
:10066000036B2032002B06D062B602230A2914D075
:10067000002919D01EE003230A2909D0137102634F
:1006800062B672464669036C29463046984711E0C7
:100690000146937328310163F2E7917B012906D16A
:1006A00093737146818505E01079002801D00324F9
:1006B00000E013712046F8BDDC560008CC56000857
:1006C00010B401230A2A0AD102462032947B012C5D
:1006D00005D8806A001D08600120907300E00023A7
:1006E00010BC1846704770B51C46034640331D7B4E
:1006F000022D01D0022070BD15012543091F0D6098
:10070000DB7B012B06D1CA258B181D71FE25921C9F
:100710005D7192B20A2C04D1037C002B08D0002317
:100720000374121D93B20A462146FFF77FFF70BD86
:10073000012070BD10B50446616B406988472046B2
:100740000021403001734173017204222146E36BA2
:100750001C316069984710BDF0B4034604880DB29F
:10076000084609145B882F460A466F4349431E46D4
:1007700064435E437F18A7421EDD104FB1420BDC7D
:10078000611ACB171B0B591809154900795A002D0E
:1007900000DA494213460CE0002A00DA5B42A11B52
:1007A000CA17120B511809154900795A002D00DAA1
:1007B000494288B219040843F0BC70477E6C0008B7
:1007C00010B503490720486003F0AAFF10BD0000E0
:1007D00000000240064901200B68400202469A438D
:1007E00005D110B548600348FFF7E0FD10BD704724
:1007F000000002403C05002004480168C943890309
:1008000002D4012149044160704700000000024009
:1008100070B40A4C002365693021A2694843A1697C
:100820009142FCD0914201D2521A01E06E1AB218E4
:10083000D3180A468342F2D370BC704700E000E050
:1008400070B5044680890125002805D0401E0004AB
:10085000000CA08102D00025284670BD1420217E06
:10086000205EFFF7FCFC01B2A06800F03FF9012018
:10087000A073F1E7C07B7047836042600160002194
:100880008173C1737047807B7047C173704710B527
:10089000044600224068114604F067FA1421615EA4
:1008A000606804F0A2FA0021206803F0A0FD002295
:1008B0001146206803F01BFD1221E28A615E206868
:1008C00003F015FDE08A218A48437D21C900FFF726
:1008D000B0FC401CA08110BD016A496A826E89B2D9
:1008E0005143CA17120C51180914C388C1804278A9
:1008F0004A4312B28280C91A836809B259188160CA
:1009000010467047F3B50446036A0021254660355A
:100910006A7D5E6A81B09C46084623464033009358
:100920001F8E1986BE4663461B6810273B407746DC
:10093000012F01D901276F7627464037BC46FF8D2E
:10094000102BBE4667467F8EBC4603D0B44510D9F7
:1009500001230FE0B44501D2012300E000237746D4
:100960007B436746F71BFB1A2F7EBF003F19BB6214
:1009700009E0002377467B436746F71BDB192F7E90
:10098000BF003F19BB62002A07D983001B199B6A6D
:10099000401C5918C0B29042F7D3606A6A7D484340
:1009A0000099C98D5143FFF75AFC02990880A1892B
:1009B000411A6182A081287E009980000019806A16
:1009C000898D4843617848430099C98DFFF747FCFA
:1009D000E269618B5043FFF742FCE0810098468654
:1009E000287E401C2876287E697D884201D100201F
:1009F0002876687E002805D00020A875E17821704F
:100A000003B0F0BD2046029903F00AFC03B0F0BD2C
:100A100010B4014660314B7D0022002B08D9002321
:100A200094002418A362521C4C7DD2B29442F7D891
:100A30000120887510BC70474030018E491C01862A
:100A400000207047F8B50446056A00206862264613
:100A50004036F18D401EFFF7ECFBA066B08D0A21F9
:100A60004843606220466030C17D2A460E051D491C
:100A70001832097896468A181368B4461A49F0263F
:100A80000F78BE40B3436646360CBE403343136016
:100A9000C27D1605CA1F937872469A181368B44629
:100AA0008F78F026BE40B3436646360CF9B28E40CE
:100AB000334313600121C9432961EA6801210A43D4
:100AC000EA602A680A432A60417D0020002907D98C
:100AD000002283001B19401CC0B29A628842F8D3DE
:100AE000F8BD0000807400088774000810B5046A1F
:100AF000C18042784A438280084A002903DA494289
:100B000089B2511A00E089B24030C08D4843114685
:100B1000FFF78FFB80B2606210BD0000FFFF000096
:100B200070B51A4D68691A4CC043C0040CD4A8149F
:100B300068611920FFF76CFE2069C043C00403D52B
:100B40000121144800F0A6F96869C04380041CD450
:100B50000120400368611920FFF75AFE2069C04355
:100B6000800412D52069C04341040B4802D40178A7
:100B7000491C05E02169C943490402D50178491E91
:100B800001700221034800F085F970BD00040140A6
:100B900000040048ED050020E805002002468032F0
:100BA000D16C78235B5C022B0AD14B68096999628E
:100BB000D16C8B6849699962D16CCA688969916204
:100BC0000121C030017200207047000010B52621BD
:100BD000074A41438C182421095D002906D10549A3
:100BE0008000085803F04CFBE083208210BD000019
:100BF000480700200C05002070B526224243124B06
:100C00000021D218118051809180D1809181D181B1
:100C100011825182D183D1821183518384009183C7
:100C20000A481184005901F0F1FD094800210059DA
:100C300001F0ECFD0748005903F04FFB064800594E
:100C400001F07AFF70BD0000480700201005002069
:100C5000140500200C050020B4050020704700009A
:100C600070B5044600F00EF80546601C02D004483A
:100C70000078241800F006F8401BA042FAD370BD9B
:100C80000006002001488068704700000006002030
:100C90000248816802788918816070470006002048
:100CA00010B506480168102211430160022000F0CF
:100CB00007F800F027F8002010BD000000200240D7
:100CC00070B504460D4D7D202978C000FFF7B1FABC
:100CD00001460B480068FFF7ACFA00F051F8002815
:100CE00009D1042C07D200222146401E00F01EF834
:100CF00000206C6070BD012070BD00000006002067
:100D00000C060020084881B08169012211438161ED
:100D1000816911400091C26901040A43C261C0693E
:100D20000840009001B07047001002408207D30EC7
:100D3000FF229A408907090E9940002808DB8308A2
:100D400009489B001818036893430B4303607047DE
:100D50000007000F0838830804489B001B18D86957
:100D600090430843D861704700E400E000ED00E0E4
:100D700001480068704700000C0600207047000022
:100D80000B4910B4401E884202D910BC01207047A4
:100D90000849486108480722C3691B021B0A4C0422
:100DA0002343C361002088610A6110BC70470000C2
:100DB000FFFFFF0000E000E004ED00E010B5FFF7EA
:100DC000DDFF10BD10B5044600F07CF900F008F816
:100DD00000F0E6F90020207000F026FA10BD0000B7
:100DE00070B582B0012418250C23532200212B203A
:100DF0000095019400F052FA0C23502215212B206B
:100E00000095019400F04AFA0C26062357221F2170
:100E10006E200096019400F041FA08250623252251
:100E200038217A200095019400F038FA062313A2A5
:100E30002E212B20009500F03FFB00F083FB0623C2
:100E400010A22C210520009600F036FB06230FA2ED
:100E50002E216E20009500F02FFB06230BA20A2105
:100E60006E20009600F028FB062309A202216E20C6
:100E7000009500F021FB02B070BD00005345543ACC
:100E80000000000049444C450000000052504D0055
:100E900020637700024613780020002B0AD0012B34
:100EA0000FD0022B10D0032B03D1002901D1012038
:100EB000117070470129FAD00229F8D00329F6D021
:100EC00070470329F3D070470329F0D07047000022
:100ED00010B5054C6088002801D0401E02E000F0EB
:100EE00005F81420608010BDEC050020F8B55748C7
:100EF000574C0078002815D0012847D0022870D020
:100F0000032842D100F04CF900F08EF9611C0A78F8
:100F10000020002A39D0012A37D0022A35D0032AEE
:100F200033D131E04D484C4F00680090494D384670
:100F300000F02CFF29884A4E88420BD1009801F01E
:100F400010FA6988884205D1306801F00AFCE97915
:100F500088421AD0384600F019FF002800DA4042D3
:100F60002880009801F0FDF96880800820703068C2
:100F700001F0F7FB3549E8710A780320002A03D015
:100F8000012A01D0022A00D10870F8BDA06800F043
:100F900035FF0C250628A06804D000F02FFF00289C
:100FA0000AD013E000F062FF06232EA22C210520B8
:100FB000009500F081FA09E0A06800F04CFF0623DC
:100FC0002AA22C210520009500F076FA1F49032063
:100FD0000A78002AD8D0012AD6D0022AD5D1D3E760
:100FE000FFE72448002141568A008918A288891801
:100FF00009B2A180002202702320000109184200DA
:10100000914200D9A080082506231BA202216E2050
:10101000009500F051FA0420205E002806DD06232A
:1010200016A202216E20009500F046FA042100224B
:10103000615EA06800F095FE044903200A78002A4A
:10104000A2D0012AA0D0022A9ED0F8BDED05002032
:10105000EC050020F8050020240600201C050020D7
:101060001805002049444C450000000052554E2010
:1010700020000000E805002063637700206377000C
:1010800003F03EFBFEE700007F2817D83F2915D864
:1010900010B4CB080724E31A2140641A0121A140AF
:1010A000074CC0000019DBB2002AC25CC9B201D0F3
:1010B0000A4300E08A43C25410BC704770470000E6
:1010C000B8070020F0B587B000243248324D0594AF
:1010D0000126032700900394049469460297019621
:1010E000284600F035FB80200090092003946946D3
:1010F000029701960494C00600F02AFBAE61F0024C
:10110000A8610420A8620520FFF7AAFD0420A861B9
:101110000A20FFF7A5FDE22000F064FAA02000F00D
:1011200061FAC02000F05EFAA22000F05BFA2C20E9
:1011300000F058FA2E2000F055FA2F2000F052FA55
:10114000252000F04FFA812000F04CFA0F2000F02B
:1011500049FAAF2000F046FAE02000F043FA4020C0
:1011600000F040FA0520FFF77BFD0C4B002000212A
:10117000CA00D2181454491CC9B28029F8D3401CA3
:10118000C0B20828F3D300F04FF800F04DF807B0D4
:10119000F0BD00000708000000040048B807002068
:1011A000F0B583B018260C251D4C019600952288B9
:1011B00006204243042300213C2000F02CF9019634
:1011C00000956288042315213C2000F024F9154D78
:1011D0000422AA5E06200826424307460196009094
:1011E000002A00DA524204232E21522000F013F983
:1011F0000097019603232A783821672000F00BF925
:101200002A783C21002000F0B3F800970196E2799B
:10121000022307210B2000F0FEF803B0F0BD000010
:10122000F8050020EC050020F0B509260027F60699
:101230000125184CED023846B030C0B200F0D2F9AA
:10124000102000F0CFF9002000F0CCF90022124865
:10125000D1000818C15DA5620220A0610020012311
:10126000A3620B0602D58023B36101E08023B36241
:101270000123A3614906401C090EC0B20828EED321
:10128000A561521CD2B2802AE1D37F1CFFB2082F85
:10129000D1D3F0BD00040048B8070020FFB589B0E5
:1012A000129E0C46F0080591710700D001214018EC
:1012B0000C99203A4843C1B2019100210091019953
:1012C000D0B200294CD90621264A414389180491FD
:1012D0000C21254A4143891803912421484323497D
:1012E000401802900C9806280BD00C2838D1182EE4
:1012F00036D100990298455C002728060DD5139A2F
:101300000FE0082E05D00C2E2AD100990398455CD9
:10131000F2E700990498455CEEE71398002812D094
:10132000002221460998FFF7AFFE6806050E641CEF
:101330000598E4B2201AB04207D10998059C401CD8
:10134000C0B2099005E00122EBE77F1CFFB2082F35
:10135000D3D300980199401CC0B200908842C1D3F9
:101360000DB0F0BDDC570008165A00088A5E000870
:10137000F7B583B0064600270090481E0C46019141
:10138000029000252146641CE4B200223046FFF79B
:101390007BFE6D1CEDB2022DF4D33046761CF6B206
:1013A00000222146FFF770FE02987F1CFFB2C4B2F4
:1013B000642FE6D3019E009D00242846691CCDB20F
:1013C00001223146FFF760FE641CE4B2642CF4D3C2
:1013D00002980027C4B20598009E002819D900255C
:1013E0002146641CE4B201223046FFF74DFE6D1C1D
:1013F000EDB2022DF4D33046761CF6B2012221461E
:10140000FFF742FE02987F1CC4B20598FFB28742E4
:10141000E5D306B0F0BDFFB5002683B01D463446C7
:10142000002B38D90127FF07681E0290281B401E99
:10143000C0B203460A220121401E002B0ADDC30769
:10144000FB4200D00A21401C401003D051435143BD
:10145000401EFBD10598FEF7ECFE0A21FEF7E9FEDF
:10146000002E05D10298844202DA002915D0012607
:1014700001220D98303101920090CAB20C98039964
:1014800060434018C0B20C9B0499FFF707FF641C2F
:10149000E4B2AC42CAD307B0F0BD0D980121009070
:1014A00001910C98039960434018C0B220220C9B14
:1014B0000499FFF7F3FEEAE7FFB50646107884B01B
:1014C000203817465E2839D807988021081A0390DB
:1014D0000D984021081A1A4D002402900398B0423A
:1014E00005DA0D99059800264018C0B205900599B7
:1014F0000298884210DA0026314605960020C20084
:1015000052195454401CC0B28028F8D3491CC9B2A7
:101510000829F3D3FFF788FE0D980121009001916F
:101520003A783046079B0599FFF7B8FE07983018C0
:10153000C6B278787F1C20385E28CFD908B0F0BDBD
:10154000B8070020F0B58DB0022020210390244878
:101550000C91079004200824099108900490002021
:101560002646029000200090049800282FD9089960
:1015700002984843069000990798069A4018175C0D
:101580000025380605D5012221460398FFF77CFD8A
:1015900004E0002221460398FFF776FD7806070E47
:1015A000641CE4B20C98A11B814205D10398344617
:1015B000401CC0B2039003E06D1CEDB2082DE0D3D7
:1015C00000980499401CC0B200908842D3D302987E
:1015D0000999401CC0B202908842C3D30DB0F0BD3F
:1015E000E66B000830B401240D49E4028C6202224B
:1015F0008A6200220925ED0601238B62030602D5CB
:101600008023AB6101E08023AB6201238B61400644
:10161000521C000ED2B2082AEED38C6130BC704747
:101620000004004870B483680022DB43DB0710D05D
:101630008C684B68C5682343CC68084E35402C4302
:101640002343C360036909689B009B080B43036144
:1016500000E0012270BC104670470000C73FFFFF4A
:1016600030B483680022DB43DB070ED04C680B6884
:10167000CD6823438C6809692C4323430B43C1681D
:10168000044C21400B43C36000E0012230BC1046F3
:10169000704700003CC2FEFF10B4047900232B49C0
:1016A0000268002C47D0002A4CD04479002C0FD07F
:1016B000012C15D0022C1BD001238279002A41D0A5
:1016C000012A1DD0022A24D0032A2BD0012339E07D
:1016D0004C6894434C6002680C6814430C60ECE75F
:1016E0000C6894430C6002684C6814434C60E4E757
:1016F0000C6814430C6002684C6814434C60DCE7CF
:101700000268CC689443CC6000688A6802438A60AF
:1017100018E002688C6894438C600068CA680243D1
:10172000CA600FE002688C6814438C600068CA6865
:101730000243CA6006E00C6894430C6000684A6883
:1017400082434A6010BC1846704700000004014004
:10175000F0B40A680024002A51D001230A68A3408B
:101760001A4048D04B68012B01D0022B10D18E6853
:101770008568134653435F00DF19BD4373431D4320
:101780008560CE680B6845689D4373431D43456083
:101790000F69C668134653435D005D19AE435F434E
:1017A0003E43C6604E68022E1FD1FF2A0ED8174650
:1017B0004A69066A94461A467A437A431701BF1A61
:1017C000BE4367467A43164306620EE0160A324667
:1017D00072434F6972437243BC461601B71A466A98
:1017E000BE4367467A43164346624E6802687343B7
:1017F000AA431A4302600A68641CE240ADD1F0BCFF
:101800000020704710B5044601F038FD08492060FB
:101810004A68F0231A40074B12099A5CD040606076
:101820004968054A4905490F515CC840A06010BD90
:1018300000100240666C0008766C0008F8B503469C
:10184000012200202349D203F025234E234C002BF4
:1018500015D0102B12D1236B03273F043B405703B5
:101860003B431F4FDF192BD05300FF1A2BD09F4251
:101870000ED12268D243920700D40846F8BD236BEC
:101880009B079B0F012B1BD0022B14D0032B0DD0D9
:1018900001F0F4FC616829400909715CC840616885
:1018A000104A4905490F515CC840F8BD2268D2432F
:1018B0009207E2D5F8BD216AC943890707D5F8BD6B
:1018C00001F0DCFCF8BD216AC9438907FAD410464F
:1018D000F8BD000000127A00666C0008001002409B
:1018E0000000FFEF766C00080149086070470000B7
:1018F0000C0600200A7B03231B029A438B681A43C1
:1019000001239B029A434B681A430123DB029A434B
:101910000B681A4301231B039A43CB891A43012303
:101920005B039A430B6949691A4301239B039A435A
:101930000A435B009A430A43426400207047000058
:10194000F0B402681D4B0124A4071D4D984203D03A
:10195000A04201D0A84203D17026B2434E68324360
:10196000184E194F98420DD0A0420BD0A84209D072
:10197000164CA04206D0B04204D0B84202D0144C5B
:10198000A04204D103242402A243CC682243026073
:101990008A68C2620A888262984206D0B04204D045
:1019A000B84202D00A4A904201D1096901634169F3
:1019B000012211434161F0BC00207047002C01401E
:1019C000000400400040014000440140002000406D
:1019D00000480140F0B501240023844D844E0129C4
:1019E0003BD0102979D0FF39491E75D00F273F020F
:1019F000B94230D1046AA9148C430462076A44686E
:101A0000BC46C16973273F02B94317683F02394397
:101A10008E46674669148F43116909030F43A91461
:101A20008F43516809030F43A84207D0B04205D045
:101A30007049884202D07049884205D1012189034A
:101A40008C43916989010C4344607146C161D1683E
:101A5000016407621C462046F0BD016A490849003E
:101A60000162046A4168A6468469A708BF00702421
:101A7000A74314682743BC4674460227BC43176932
:101A80003C436408576864003C43A84207D0B04216
:101A900005D0584DA84202D0574DA84214D1082570
:101AA000AC435569AD002C430425AC439568AD00AB
:101AB0002C43FF250135A9439569294301256D0272
:101AC000A943D5696D002943416061468161D168B0
:101AD0004163046241E000E041E0016A1024A14357
:101AE0000162076A4468BC46816973273F02B943B3
:101AF00017683F0239438E46674620218F4311699C
:101B000009010F4310218F43516809010F43A84277
:101B100007D0B04205D03749884202D036498842C2
:101B200015D180218F43516989010F4340218F4393
:101B3000916889010F43012189028C4391698900D1
:101B40000C430121C9028C43D169C9000C43446094
:101B500071468161D168816307621C467BE7016A37
:101B6000FF240134A1430162076A4168BC46C4698D
:101B70007027A408A400BC4317683C43A646012470
:101B800067466402A743146924022743FF240134F3
:101B9000A743546824022743A84207D0B04205D087
:101BA000144CA04202D0144CA04217D10124E402EC
:101BB000A7435469A40227430124A402A7439468BD
:101BC000A402274301242403A1439469240121434F
:101BD00001246403A143D469640121434160714637
:101BE000C161D168C16307621C4634E7002C014023
:101BF00000400140004401400048014070B50446E7
:101C0000006884B00D460126C043C0074CD0E96887
:101C10006868AA6908432969114308432168244A6E
:101C2000114008432060A9686068032212039043B2
:101C3000084360606869A168121191430143A16083
:101C40001C48844201D1002003E01B48844203D198
:101C50001020FFF7F3FD09E01848844202D018482D
:101C6000844221D16846FFF7CDFD029800281BD0A1
:101C70002968002918D00123AA690026DB039A42AB
:101C80000CD140004A088018FEF7D3FA81B20D4803
:101C900008400907490F0143E16005E04A081018B0
:101CA000FEF7C7FA80B2E060304604B070BD0000B5
:101CB000F369FFEF00380140004400400048004055
:101CC000004C0040F0FF000010B50446406802F0F0
:101CD00065FBA1680882000C488210BD10B5006841
:101CE000012102F0BEFB10BD002839D010B504461A
:101CF000007E012833D1217B0020012904D0022954
:101D000010D0032929D11EE0A168203108710121DA
:101D1000606802F06CFB0E21E28A615E606802F08E
:101D2000E6FA0CE0A168203108710021606802F039
:101D30005EFB1021E28A615E606802F0D8FA00283A
:101D40000BD002200AE0A168012020310871A068B0
:101D5000618A0182A18A4182F3E70320207610BDC7
:101D6000704701230373C181C282037643767047B3
:101D7000022303730182C282012101760021417690
:101D8000704710B5006802F03CFB10BD10B540680C
:101D900002F015FB02F02CFA10BD407E70478368FC
:101DA00019880846598880B2090408437047836837
:101DB00099880846D98880B2090408437047836827
:101DC00099890846D98980B2090408437047836815
:101DD000198A0846598A80B2090408437047C08AA4
:101DE000704701460E20085E704701461020085ECD
:101DF000704710B5406802F0D8FA10BD10B5006801
:101E000002F028FB10BD81681E20085E70478368C1
:101E1000598B0846998B80B2090408437047836840
:101E2000D98A0846198B80B2090408437047836039
:101E30004260016000210173C1810182C18201768B
:101E400070470322027341820914818201210176C5
:101E500000214176704710B504460068032102F066
:101E600000FB002801D00121217610BD10B50068CB
:101E7000072102F0F6FA10BD10B5406802F0BDFA75
:101E800010BD000001B2120C12048BB21A430D4BAC
:101E9000001459435843091808180B494042C0130D
:101EA000CB43884203DC1946884200DB01B290B282
:101EB0000A041043994203D1044980B2090408433B
:101EC00070470000E6490000FF7F00000180FFFF2F
:101ED000F8B50546084600F053F829B22A140B4617
:101EE00006B20714154671437D43481B1449C513B8
:101EF0008D4201DD084603E01248854200DB28B22E
:101F0000250C2D0484B225430E4CA04203D12D0C88
:101F10000D482D0405437B4372439818C013884233
:101F200004DCA04201DA214600E001B2A8B20A04B2
:101F30001043A14203D1054980B209040843F8BD0A
:101F4000FF7F00000080FFFF018000000180FFFF95
:101F500070B50546084600F013F8024629B203B2F0
:101F600028140E46121405465E4355437519514315
:101F70005843401AED13C113A8B20904084370BDB9
:101F80000122D203821812040323920D1B021A406D
:101F9000012330B4DB03C11889040C0E6300FF2554
:101FA0002C1B1E496400002A1FD0FF3A521E29D064
:101FB000FF3A521E0ED0FF3A012A09D10A5BC95AD4
:101FC00080B2120410434942000C000489B2084355
:101FD00030BC7047CA5A80B21204095B1043000C2F
:101FE000000489B230BC08437047CA5A095B5242A8
:101FF00080B2120410434942000C000489B230BC84
:10200000084370470A5B80B252421204C95A104317
:10201000000C000489B230BC08437047A653000886
:10202000F8B5044680890025002845D061680A88F3
:10203000D308DB00160A012E02D11B06DD0E330287
:102040005207520F521ED2B21C267243801E3C4EC3
:1020500080B2A081891C961961602268002792894C
:10206000E781521E12B2382B4DD00FDC5807400FBB
:102070001BD1D8100125072817D20100794409790E
:1020800049188F441A1F243B292D3600582B47D05E
:1020900006DC402B3BD0482B3DD0502B05D13FE0F8
:1020A000602B3DD0FF3B012B3AD00220E289A16892
:1020B0008854E089401CE081F8BD0420E081A068DC
:1020C00005702BE091B2204601F0E2FDEEE791B2FF
:1020D000204601F083FAE9E73046FFF7C7FE1DE02E
:1020E0003046FFF78BFE062818D13046FFF7C4FEB6
:1020F00014E03046FFF782FE0028EDD13046FFF7AE
:10210000AAFE6840D2E73046FFF73BFE06E03046C5
:10211000FFF7E4FD02E03046FFF7D6FD0020C5E7FB
:10212000022D0AD2074BAD005D59002D05D0A368E2
:10213000009323460E33A847B8E70D20B6E700000A
:1021400024060020A005002005480078002805D0BE
:1021500010B500F007F802F08BFC10BD70470000CE
:10216000A805002070B5194C207801282DD1608871
:10217000002802D06088401E1AE002F04BFB144D8C
:102180001449286882689047686000280FD0286842
:102190000A22036810499847002808D02846FFF70C
:1021A0003FFF2868EA89A96845680A23A8470120F3
:1021B0006080A088002802D0A088401EA080E0880F
:1021C000002802D0E088401EE08070BDA8050020F5
:1021D000900500209C05002098050020F1B53348AB
:1021E00002F03AF9324E002030703349314808602D
:1021F00033493248086000F00DFE3248FEF79AFA83
:10220000314800F0F9FA3148FEF71CFC304C2F4BF6
:10221000304A31482168FEF72FFB30492E480860CC
:102220002A4A2949206802F0D2F82A4802F094FD8F
:102230002B4800F0E1FA2B4800F0DEFA2A4801F0C2
:10224000CCFF2A482A4D00682749FF300130C5607D
:102250000161284800F098FA28492748086001F0F1
:10226000B1F90020FEF7C8FC254801270771206856
:1022700002F094F82882000C6882206802F08EF840
:102280000014A8822B4609491E482268FFF7CFFD9B
:10229000206802F090F8014600221A48FFF761FD1D
:1022A0000098184901603770F8BD00002005002033
:1022B000A805002058040020B8050020D001002007
:1022C000B40500203C050020180100201803002060
:1022D0000C050020A002002094030020B00500207F
:1022E0004401002070010020D80300201C050020BC
:1022F00048070020B003002000040020BC05002097
:10230000680700202406002030B4C31DF9331A8862
:102310000024520081521A885A80521C92B21A80AC
:10232000802A01D300221A8000225500455F521CEA
:102330002C1992B2802AF8D3E017400E0019C01170
:10234000988030BC0846704700210A464B00491C63
:1023500089B2C2528029F9D3FF3001300280428015
:102360007047FF210531085E7047000010B5FEF789
:10237000FFFC7D210901FDF75CFFFEF701FD03482D
:10238000FFF72CFF02F084FF10BD000000000020CA
:10239000F0B59BB0002014900C9012901390159003
:1023A000199016901790189006900A900790089030
:1023B00009900B900090019002900390049005907A
:1023C000724880690121C90208437049886188699F
:1023D000C9140840119000216846018640200D90E4
:1023E0007D2000010E90FF2001300F900120684FEA
:1023F00010900CA93846FFF7A3FA39688020814372
:102400003960644801786448081801680646634CDE
:10241000082523782A469A401143016060201290D3
:102420000020139014907D20C0001590002016907D
:1024300017901890199012AA01213846FFF7CAFA8E
:102440003168304622780426334693409943016030
:10245000E01F81785048081811900168A2782B4637
:1024600093401943016000201390149012AA102188
:102470003846FFF7AFFA11980168A27833469340C7
:1024800099430160E01F01794348081811900168E1
:1024900022792B4693401943016000201390149039
:1024A00012AA69013846FFF795FA11980168227956
:1024B0003346934099430160E01F817936486B02AF
:1024C000081811900168A279954029430160002005
:1024D00013901490324870251590129512AA19463F
:1024E0003846FFF777FA11980168A2799640B14310
:1024F00001607868A84328437860B86880218843E1
:10250000B8600801069040100790801008900021E4
:1025100008A801716846C1840A910B9106A9384642
:10252000FFF7E8F91949012049694004174A0143B6
:102530005161516902240140401200900325029527
:10254000002009261191F60603900194049469462F
:1025500005943046FFF7FCF820020090002003901D
:10256000029501940494694605943046FFF7F0F80B
:102570006002009000200390029501940494694643
:1025800005943046FFF7E4F81BB0F0BD00100240A0
:10259000002C014087530008182C01408E5300087E
:1025A000CF070000F0B58DB000240094039404948C
:1025B000534801940294089409940A94C269012131
:1025C0000A43C261C169C907C90F05910121426966
:1025D00049040A43426142690A400592426949003E
:1025E0000A434261406902250840059020200B956E
:1025F00006900920079506A9C006FFF7A9F808204C
:102600000B95069008940994079506A90A943D48ED
:10261000FFF79EF8032069078968C908C9000143CC
:1026200068078160384B39481978081802683849BA
:1026300003250E78B540AA430125B5402A43026020
:1026400005680E780C22B24095432246B2401543ED
:10265000056005680F78F026BE40B5431543056058
:1026600001208007056A2B4A0A2716783846B040B1
:1026700085432046B0400543780705629B78234890
:10268000181805688E780323B3409D430123B34097
:102690001D43056005688E780C23B3409D43234697
:1026A000B3401D43056005688E78F021B1408D432D
:1026B0001D4305607807016A937838469840814346
:1026C000DAB22046904001437807016268460480F0
:1026D000114802900194694603947807FFF730F996
:1026E0007807006880218843CA051060506870220E
:1026F0009043CA0550609068884390600DB0F0BD6B
:1027000000100240000400488753000818000040F1
:10271000955300089C5300089F0F000010B5044615
:102720000078002801D0002013E02620005D00F092
:102730001BFE09490246884208D0208B238A0146A5
:10274000401E43439818FDF774FD2082204600F098
:102750002EF8E08280B210BDFFFF00000021018250
:1027600070470178002902D0808A00B27047018A40
:10277000026A8A1A1E21415E808C5143CA17120CCC
:10278000511809140818F0E710B50446007800281D
:1027900004D00020E082608A208210BD201D00F05D
:1027A000C9FE262108552046FFF7D8FF10BD018A33
:1027B000428B914201D908207047828B914201D20D
:1027C00000207047C08A704701462220085E70478B
:1027D000002800D0C08C704701460620085E704774
:1027E000002800D0C08B704701460420085E704767
:1027F000002800D0808B7047018881804188C1808B
:10280000018C418400218160816270478160704742
:10281000418470470122C1848A4082847047C1800C
:10282000704770B501248C40C18305464483E003A2
:10283000011B284600F00FF8E003211A284600F09B
:1028400008F870BD81807047012281838A4002832D
:10285000704701617047C16070470000F0B4042206
:10286000825E062314251624C35E0026455F045F9E
:102870004A43002B09D087684B43F91808D5002F2D
:102880000BDD002B09DD144907E0002181600DE01C
:10289000002F02DA002B00DA1049C3688B4202DBFA
:1028A00003698B4201DD836000E081608168877F7E
:1028B0000B463B41077F3A419A18AA4202DDAE1A05
:1028C0002A4603E0A24201DAA61A2246891981604B
:1028D000F0BC10B270470000FFFFFF7F01000080D6
:1028E00070B5C51DF935EA68044693891846D38941
:1028F00080B21B041843D38A128B99B2120411437D
:1029000002B20BB2001409145A4348431018C117FD
:10291000090C08180614286902F0F6F9A96848435A
:102920004B21C900FDF79BFC014630464843062178
:1029300048430A21FDF793FCC117090C081801143C
:102940002046FFF7E1FC70BDC169084770B5044639
:10295000002680340546002902D0012908D015E060
:10296000284600F0E9F8E08B6081002808D00DE0EF
:102970006089002809D0401E0004000C608105D148
:10298000296928468847012600E00126304670BDA7
:1029900042681047F0B4054640352A8F0BB25343C6
:1029A00002468032978B0914794349004942CC187A
:1029B000E60F3419CB1ADE0FF318064664105B10CD
:1029C000A036BF08002C43DA002B14DA0421317240
:1029D000E11ACE17B60B711889147E18D917C90BD6
:1029E000C91849148B19E117C90B09194914741A2C
:1029F0005480968059E0002914DC03243472CC1AE8
:102A0000E617B60B3419A4143E19DC17E40BE318CF
:102A1000CC17E40B5B1461189B1949145C1A5480A1
:102A2000938013E002233372631ADE17B60BF31898
:102A30009B14FE18E317DB0B1B195B14F41ACB175E
:102A4000DB0B591849140B1953809480D68043E04E
:102A5000002B14DB01213172E11ACE17B60B71186D
:102A600089147E18D917C90BC91849148B19E11795
:102A7000C90B091949145380741A96802BE0002958
:102A800015DC05233372631ADE17B60BF3189B149B
:102A9000FE18E317DB0B1B195B14F41ACB17DB0BC7
:102AA0005918491456800B199480D38014E00024DF
:102AB0003472CC1AE617B60B3419A4143E19DC177D
:102AC000E40BE318CC175B14E40B9B196118491451
:102AD00056805C1A9380D480002E00DC0026B1B2B0
:102AE0006987002B00DC00239BB2AB87002C00DC45
:102AF0000024A4B2EC87568B012E1AD10C26965FC7
:102B0000002E168C01DD891900E0891B69870E21D2
:102B1000515E0029118C01DD591800E0591AA9876E
:102B20001021515E0029118C01DD611800E0611A4D
:102B3000E9878169F0BC084781680847F0B5064617
:102B400089B040680590B069374604900025803709
:102B50003D6330467D63C030BD63044685714248A5
:102B6000016A4248814340480162414971604149DC
:102B70000420B161E07101463046A0300790017237
:102B8000304600F075FAF86C33466030427CC6334C
:102B900039463548029302F0D3FB304600F016FA6E
:102BA00035497160E57107980572A571304600F0EE
:102BB0005FFAF86C39466030427C2B48029B02F089
:102BC000BFFB304600F002FA079804210172386B0F
:102BD00000093863786B00097863B86B0009B86343
:102BE0000599716004992548B161817924480818D4
:102BF0000368244A082796793946B1408B4303601D
:102C000003688B43036003688B4303601649208885
:102C10004863208888632088C863D01F01781848DB
:102C20000818016813783E469E4031430160D01F6A
:102C3000817813480818016893783E469E403143D6
:102C40000160D01F01790E48081801681279974079
:102C5000394301600448006A044908430249086294
:102C6000A57209B0F0BD0000002C01405505000020
:102C7000812D0008512F0008D12D00088E74000806
:102C8000182C014095740008F0B43A4B5A6870242F
:102C9000A2435A60A822384B145CDA680425AA4380
:102CA000DA608030A2001546C36C34355D592E8839
:102CB0004C329A581588314A5342062C4ED227007E
:102CC0007F443F79FF19BF44142F2F020214046B75
:102CD000A41B9C4201DA0B8004E0944201DD0A80CF
:102CE00000E00C80446B641B9C4234DB94422EDC7D
:102CF00033E0446BA41B9C4201DA4B8004E0944215
:102D000001DD4A8000E04C80846B641B02254D5F2E
:102D10002C196442944201DD0A801FE09C4201DAD2
:102D20000B801BE00C8019E0046BA41B9C4201DAB1
:102D30000B8004E0944201DD0A8000E00C80846B8B
:102D4000641B00254D5F2C196442944201DD4A80CA
:102D500004E09C4201DA4B8000E04C800A888281CA
:102D60004A88C2810A884988511849420182F0BCC8
:102D700070470000002C014000240140FF7F00004C
:102D800070B4124C0246C032D37965687026B543E0
:102D900065609479102C13D280309B001C46C56C62
:102DA00034342C592488056B64190463C46C4C3387
:102DB000E3581B88446B1B1943639079401C907146
:102DC00000200880488070BC70470000002C014043
:102DD00070B402460E4BC030C4795D687026B543AE
:102DE0005D600023A825AB548579102D0BD280326D
:102DF000A400D56C4C342C592488956B64199463C9
:102E00008279521C82710B804B8070BC704700002D
:102E1000002C0140F8B43B494B68042293434B60BB
:102E20000A604B68082293434B600A60364C226864
:102E30000123DB041A4322608022344BD2431A61FF
:102E4000DA6880252A43DA600246C03215886D1E92
:102E50005D620123A5699B051D43A561A4691C4012
:102E60002B4B0094DC68CD142C43DC608B6817245A
:102E7000A3434C0523438B608B68DB43FCD58B68F5
:102E8000DB435B07F8D58B68DB43DB06F4D58B6847
:102E9000DB439B07F0D58B681E4C23405B1C8B608B
:102EA0000B68DB43DB07FBD11C4904460E781C4D45
:102EB000194BC23474510D781B4E1A4CAC5103247B
:102EC0000E781D1D77593F0C3F0427437751097831
:102ED0005D58012425435D500C494B687025AB4378
:102EE0004B60124D0B6A2B430B620B158030C36392
:102EF000002353721372D37243830868204308601F
:102F0000F8BC70470024014000100240002C014032
:102F100000580140E8FFFF7F000002409C74000859
:102F20000C0002404024014008000240550500000A
:102F3000C0300021437A0A46012B01D1022142729E
:102F4000037A012B02D140231943027208467047CD
:102F500010B501229202BC210A500146C031CB7942
:102F6000A82213540988491E89B200F06DF910BDDA
:102F7000F8B502460346C032803314885988A44607
:102F8000641AA6B2DC6C9D884034E78CBE4206D938
:102F90000423A8210B541188491E89B213E04D1B4C
:102FA000ADB27600AE4202D2228D891A0AE07918BB
:102FB00089B28C4507D80124E402DC6312885200F0
:102FC000511A491E89B200F03FF9F8BDF0B4234907
:102FD000CA6852085200CA600022A9231A544B6CD6
:102FE0000124E403A3434B640446C034A37A012BB9
:102FF00010D08030C36C7825ED5C022D0AD15D685D
:103000001B69AB62C56CAB686D699D62C36CD868A7
:103010009B6983621348124B00781D580226B54302
:103020001D5011488568114F3D4010358560C568B9
:103030006D086D00C5605E6004230360C3683725BA
:10304000AD01AB43C360E272321F0A610869C0433D
:10305000C007FBD10A61F0BC70470000002C0140A2
:10306000000002409C74000800240140E8FFFF7F3C
:10307000F0B40023A922135402460123C032D372B4
:10308000138836495B084B6313885B088B6313888E
:103090005B08CB631288521F0A640124E4430C616D
:1030A0000A69D243D207FBD10C614A6C01239B020F
:1030B0001A434A644A6C5B011A434A648030C26C0A
:1030C00078239B5C022B0ED10D6A254BAB435368D2
:1030D000126939D09A62C26C936852699A62C26C62
:1030E000D36892699A62C06C1E4B6030007C5A694A
:1030F000D208D20002435A611C4A1B48157846592F
:1031000076087600465102261578071DEF593F0CC8
:103110003F043743061DAF511678875901252F43C9
:10312000875104261E60DF68BF08BF002F43DF60A1
:103130004660127883580226334383500C61C86876
:103140002843C860F0BC70479A61C36C9A685B6999
:103150009361C26CD36892699A61C4E7002C014004
:103160005505000000240140000002409C74000846
:10317000F0B401468031CC6B0A461C49CB6803256C
:10318000AD02AB432343CB60CB680C153725AD01B3
:10319000AB432343CB600346A0331E461B7AD56C5A
:1031A000EB1860339B7C9D00CB680427BB432B430B
:1031B000CB60337AD56C9B001C33EB588B62D36C9D
:1031C0004D6960331B7CED08ED001D434D61084DDA
:1031D0006B687026B34333436B608B68054D2B409F
:1031E0001B1D8B60D463F0BCA630704700240140E7
:1031F000002C0140E8FFFF7F0123A922114913544D
:10320000DA1E0A6100224A638A63CA630A69D243EA
:10321000D207FBD14A6C0123DB031A434A64803096
:10322000C16C7822525C022A0AD14A68096991610C
:10323000C26C916852698A61C16CC8688969816190
:1032400070470000002C014010B403468033DA6C54
:1032500040301268448F5463848F9463C08FD0636E
:10326000116450684006400F00D0012019880129E0
:1032700002D101200021198010BC704710B5144CF8
:1032800062680C200240134807D0042A05D0124976
:10329000082A03D00C2A00D1084610BD6368032217
:1032A000D20313400122D2039B1A04D09B1A02D0EE
:1032B000934200D10846E16A0907090F491CFCF74F
:1032C000B8FF61688902090F891C484310BD0000DE
:1032D0000010024000127A00006CDC021E48062139
:1032E000007802464A431D49895C012932D1F0B475
:1032F00081001B48042443581B681C6043581B680A
:10330000DC68A408A400DC6043581B68DC6837252F
:10331000AD01AC43DC6044582368A4685D69ED08E6
:10332000ED0025435D6143581E791D680123B406F5
:103330001F46B7403C436403640BAC6240580068CE
:103340008168084C2140091D8160044810184370B1
:10335000F0BC704770470000C0050020A0070020A7
:1033600070070020E8FFFF7FF0B4062207465743AE
:10337000444A0021D55D13460424FB18002D24D1B6
:1033800006254D43565D012E0DD1AE187579854247
:1033900008D95D71197106214D437071A918087122
:1033A000042100E00C46491CC9B2042912D0E7D31D
:1033B0000121D15500215970334906250C786C4301
:1033C000A2185278012A00D008703049C97A002921
:1033D00011D053E0042C0BD0062161438D1869797C
:1033E00059711C7106246143687189180871DFE7FF
:1033F00025490870DCE7264A800011580968CC6826
:10340000A408A400CC6011580968CC683725AD0128
:10341000AC43CC6014582168A4684D69ED08ED00F8
:1034200025434D6111580D790E68AC060121A94064
:103430000C436103490BB1621158042409680C6004
:10344000115809688C68134D2C40241D8C6010584D
:1034500000680168C9434907FBD4006C58800A48DA
:1034600001788900515801220968CC68A408A40099
:103470001443CC6059790170022058705888F0BC10
:1034800070470000A0070020C00500209002002027
:1034900070070020E8FFFF7F70B50F4CA07801286F
:1034A00018D16078FFF760FFA0800146607806229F
:1034B0000A4B4243D2185278002A01D00222A2704D
:1034C000074AC5005359002B04D00026A670AA183D
:1034D0005268984770BD0000C0050020A00700207A
:1034E0008007002010B4104A062110780F4B41438A
:1034F000C9184B78012B12D183000D48C3581868A6
:103500000468E44364070AD4006C488002204870D1
:1035100018680123C468A408A4001C43C460487947
:10352000107010BC70470000C0050020A0070020EC
:103530007007002070B40246FF201E4B00218C0053
:103540001C59002C32D026791579AE4205D1246859
:103550001568AC4201D108460421491CC9B20429AE
:10356000EDD3042820D281005A500023124CC10010
:10357000635011688C68E443E4070ED08C6817250B
:10358000AC43ED072C438C6011688A68D243FCD5AC
:103590008A680A4C2240521C8A600621084A41432C
:1035A000535489184871087170BC70470428D4D9E5
:1035B0000846D2E77007002080070020E8FFFF7F61
:1035C000A007002010B5002181604160C160016149
:1035D000012141611830FCF78DFD10BDF3B58DB0B0
:1035E0000D980022456880680190684602800D9819
:1035F000868908B204900D990120CA81002E26D038
:103600002846008869460A91382103460B40410745
:10361000C008C000490F8446491E0020C9B202906C
:103620001C2708467843FD4FB61EAD1C019C049A2A
:10363000C719B6B2182B7DD004DC082B09D0102B8B
:1036400004D129E0202B76D0282B75D007200FB08D
:10365000F0BD002A1DDD6046482805D088280FD01F
:10366000052001216A4645E206204143EC4808183E
:1036700000F0F0FE20700121684601800298EAE225
:103680003846FEF78AFB20700121684601800298C7
:10369000E1E208200FB0F0BD022AFADB9523604674
:1036A0001B01C21A9C4571D030DCDE4A831A90425D
:1036B0006DD018DCDC4BC21A984276D009DC902819
:1036C00058D0D0285CD0FF38113862D0802872D111
:1036D00065E0402A73D0C02A77D0FF3A521E7AD0D4
:1036E000402A68D17DE09806800E64D198110F2899
:1036F00061D202007A441279921897445C83895C03
:103700005C5C5C5C5C8F969CA0A6AA000B2000020F
:10371000131A824271D01DDCC448131A82426DD044
:103720000DDC402A6BD0802A6AD0C02A69D0FF3ACB
:10373000012A02E0FFE036E1BFE13CD1A3E0402BEB
:1037400070D0802B6FD00F208001181A6CD04028C9
:1037500031D1E5E09806800E2DD1981109282AD2A2
:1037600002007A44127992189744DFA9AFB5BBC121
:10377000C7CDD400AE4889004058FFF735F8C7E000
:10378000AB4889004058FFF727F8C1E067E02EE01A
:103790000BE0A74889004058FFF716F8B8E0A548A5
:1037A00089004058FFF720F8B2E0A248890040584D
:1037B000FFF712F8ACE0B8E001E006E00BE09D484E
:1037C00089004058FFF700F8A2E09B488900405864
:1037D000FFF70AF89CE0984889004058FEF7FCFF84
:1037E00096E0954889004058FEF7EEFF90E0934838
:1037F0008900405801F088FA8AE05AE047E032E058
:1038000037E03AE088008E490858FEF7AAFF7FE0CB
:1038100088008C490858FEF7A4FD79E03846FEF789
:10382000BEFA75E039E03EE07AE03846FEF7B7FAD6
:103830000114218074E03846FEF7B9FA68E0384692
:10384000FEF7B5FA011421806AE03846FEF7B7FAB0
:103850005EE03846FEF7B3FA0114218060E0384696
:10386000FEF7B5FA54E03846FEF7B1FA01142180AC
:1038700056E03846FEF7D3FA4AE03846FEF7CFFA6C
:10388000011421804CE03846FEF7C1FA40E038468A
:10389000FEF7BDFA0114218042E06B4889004058D0
:1038A00000F0AAFC34E068488900405800F0ACFC05
:1038B0002EE05F4889004058FEF79AFF28E05C48F8
:1038C00089004058FEF78CFF22E059488900405893
:1038D000FEF77EFF1CE0584889004058FEF788FF3D
:1038E00016E0554889004058FEF77AFF10E052482C
:1038F00089004058FEF76CFF0AE04E4889004058A6
:10390000FEF776FF04E04B4889004058FEF768FF59
:10391000208005E0474889004058FEF759FF208085
:10392000022168460180029895E1052002216A463D
:1039300011800FB0F0BD042A00DAAAE6604618280C
:1039400009D0582813D098281FD0052004216A4692
:1039500011800FB0F0BD062041433148081800F037
:1039600074FD2060042168460180029873E13846A6
:10397000FEF70CFA3C2148430A21FCF770FC20605A
:10398000042168460180029865E13846FEF731FA65
:103990003C2148430A21FCF762FC20600421684670
:1039A0000180029857E1604620280BD0602820D083
:1039B000A0284FD0E02864D0052000216A4611805D
:1039C0000FB0F0BD00208446012768460A991F4BBE
:1039D000078005E0277008885B1C401C0880641C79
:1039E0001F78002F65D008889042F3DB06200FB0C7
:1039F000F0BD00208446012768460A9B14490780D1
:103A000005E027701888491C401C1880641C0F783A
:103A1000002F4ED018889042F3DBE7E72406002001
:103A20002005002090050000D001000040010000AA
:103A3000D00500201005002014050020CC05002032
:103A4000180500201C050020D4050020545600084D
:103A500033560008894889004358002084460127CE
:103A600068460A99078005E0277008885B1C401C9F
:103A70000880641C1F78002F1BD008889042F3DB5D
:103A8000B4E788007E49012709580020844668462B
:103A90000A9B0780243105E027701888491C401CC8
:103AA0001880641C0F78002F03D018889042F3DB35
:103AB0009CE7002020706046CDE00A94A41C03948B
:103AC000FF246046A934031BA4457BD008DC2828CA
:103AD00013D0682828D0A8283FD0E82805D155E081
:103AE000402B6DD0FF3BC12B6BD00A990520098874
:103AF0006A46891C11800FB0F0BD0A200A990C2A71
:103B0000088005DA08200C216A4611800FB0F0BD4C
:103B10000A225C490398FCF7B6FB0A9968460988B3
:103B2000891C0180029896E03C200A9B3E2A18805E
:103B300005DA08203E216A4611800FB0F0BD8800EA
:103B40004F493C2209580398FCF79DFB0A996846A7
:103B50000988891C018002987DE00E200A9B102AAA
:103B6000188005DA082010216A4611800FB0F0BDD8
:103B7000880045490E2209580398FCF784FB0A99EE
:103B800068460988891C0180029864E00C200A9B21
:103B90000E2A188005DA08200E216A4611800FB01F
:103BA000F0BD880039490C2209580398FCF76BFBDB
:103BB0000A9968460988891C018002984BE001E057
:103BC0001BE031E0039C3846211D0391FEF709F903
:103BD0003C2148430A21FCF742FB2080000C608016
:103BE0003846FEF7FCF8039908800A9906200880F9
:103BF00008216846018002982DE003990A980C4636
:103C0000891C0391042101803846FEF7EEF82080DC
:103C10003846FEF7E4F8039908800A99684609884F
:103C2000891C0180029816E0039804210446801C38
:103C300003900A9801803846FEF7C9F8208038467C
:103C4000FEF7C5F80114039801800A9968460988AF
:103C5000891C0180029869460988019A0D9B5218B7
:103C600001920D9AD2895218DA81049A511A09B236
:103C70000491002E00D0C3E40FB0F0BDD8050020A1
:103C8000E00500206C560008E4050020DC0500205B
:103C9000F3B585B005980599406889680491059A3F
:103CA0000C21515E0022059B03921546DA81002902
:103CB00071DD891E0AB201920688841C00200290E0
:103CC0003820334603406D1C7007400FF108401E3A
:103CD000C0B2C9001C270646EDB2EC467E43FE4F3B
:103CE000F6193746182B6FD004DC082B15D0102B93
:103CF00004D135E0202B68D0282B67D00720029014
:103D0000002061460880684600880199029A091AD5
:103D1000201809B2012D5AD0CCE12078482907D0CB
:103D2000882907D005200290012069460880EAE72B
:103D30000420F8E700280AD00128F5D13046FEF724
:103D400058F8014600223846FEF70BF8ECE73046FB
:103D5000FEF759F8014600223846FEF709F8E3E776
:103D60009922120126888B1A914276D03DDCDB4ADB
:103D70008B1A914272D020DCD94BCA1A99426ED06C
:103D80000FDCD84A8B1A914272D005DC90295DD0A5
:103D9000D02974D165E0C3E1802B75D0C02B6ED1E2
:103DA00079E0802A6DD0C02A6CD0FF3A521E6AD0CA
:103DB0000520C001824262D191E09806800E5ED15A
:103DC00098110F285BD203E0E8E011E128E16FE1F0
:103DD00001007944097949188F44DA81DADADADAAC
:103DE000DA8181818181818184000B21C9015A1A84
:103DF0008B4273D019DCBC48191A83426ED009DC9F
:103E0000402B6BD0802B69D0C02B67D0FF3B012BA0
:103E100035D17CE040297AD00720C001081A40D073
:103E200040283ED080282AD171E09106890E26D103
:103E300091111539092922D20A007A44127992186F
:103E40009744676E757C838A91989F008100A7488C
:103E5000405831B2FEF7F6FC9CE04EE03FE021E036
:103E600006E08100A148405831B2FEF7D8FC91E04D
:103E700081009E48405831B2FEF7CAFC8AE087E0D4
:103E800002E016E01CE022E081009948405831B27F
:103E9000FEF7D8FC7EE081009548405831B2FEF72D
:103EA000BEFC77E081009248405831B2FEF7B0FC8A
:103EB00070E081008F48405831B2FEF7C3FC69E0E2
:103EC00081008C48405831B2FEF7A9FC62E08100C5
:103ED0008848405831B2FEF79BFC5BE017E00420B5
:103EE000029057E03846FDF772FF010C0904B0B2AA
:103EF00001433846FDF7A5FF4CE03846FDF767FF64
:103F000081B2300401433846FDF79BFF42E00420B4
:103F10003FE08100754840583146FEF795FC39E096
:103F20008100724840583146FEF77BFC32E0810048
:103F30006E4840583146FEF76DFC2BE081006D481D
:103F400040583146FEF780FC24E081006948405823
:103F50003146FEF766FC1DE0810066484058314658
:103F6000FEF758FC16E08100614840583146FEF7E4
:103F70006BFC0FE081005E4840583146FEF751FC73
:103F800008E081005A4840583146FEF743FC01E002
:103F900005200290022069460880B4E660882288E5
:103FA00000041043D82921D006DC182910D0582944
:103FB0000ED0982907D10EE0FF39193916D04029C3
:103FC00014D0802912D0052002900420694699E679
:103FD00004200290F9E70A2148433C21FCF73FF90D
:103FE00001B200223846FDF7BCFEEEE70420EBE705
:103FF000042102916646012320462146338005E0D4
:1040000003703388401C5B1C3380491C0B78002BE9
:1040100003D037889742F3DB75E60021017072E622
:104020002088801C83B260460380A01C934204DD7C
:104030000020614608800A2015E0E82912D006DC3D
:1040400028290FD068290DD0A82908D10AE0FF3906
:10405000A9390AD0402918D0FF39C1291FD005201D
:10406000029050E6042002904DE6418886880B04B9
:1040700001880A200B4358433C21FCF7F0F801B2B9
:1040800032463846FDF76DFE3DE681780288090428
:104090001143828809B23046FDF76AFE33E6028892
:1040A000408891B2000401433046FDF7CAFE2AE67B
:1040B000002930D0069B002B2FD0049B1A70049B44
:1040C000059C5B1C0493059BDB895B1CE381069BC1
:1040D0005B1E9BB206930FE024060020D005000073
:1040E000100200001001000040010000D005002077
:1040F0001005002014050020002A05D00123039399
:10410000072A10D00A2A0ED0002900DDD1E5039835
:10411000002805D007E00392F9E70820039002E0A9
:1041200005990020C881039807B0F0BDF8B5054691
:1041300004462035A879FFF717F914490746884245
:104140001ED06979206A490047520022268B10460A
:10415000002E07D9216A4300CB5A401C9A18C0B2DE
:104160008642F8D831461046FCF763F8E080A78015
:104170006879761EB04201DA401C00E000206871C8
:10418000204600F005F82081F8BD0000FFFF000088
:10419000C188428B914201D902207047808B8142B5
:1041A00001D2042070470020704710B4418B828BED
:1041B000038B89184A080021002B07D94C00036A99
:1041C000491C1A53038B89B28B42F7D88280C28074
:1041D00000212030417110BC704710B504460C30EE
:1041E000FFF7A8F9262108552046FFF7DEFF10BD8E
:1041F00001460C20085E704701460420085E7047A7
:1042000001461020085E704710B50C21415ECA03BC
:10421000521A1421415E1046FCF721F800B210BD7D
:1042200070B40023CE5E0125C4780278002E02DA35
:10423000714289B200E00988868A8E4200D2012349
:10424000C68A8E4200D901231221415E002902DA7A
:10425000494289B200E0418A068B8E4201D3002B8D
:1042600004D0A24205D2521CD2B202E0A24200D235
:104270000022A24200D100250270284670BC70477F
:1042800070B501780546002907D06C68E8680128F8
:1042900005D9AA691419401E06E0AC68F6E70128A2
:1042A00003D1688804040020E860012905D0E017E4
:1042B000000C00190014AC6070BDE017000C001970
:1042C00006146869FFF794FF301A01B22869FEF7F7
:1042D000C5FA01046C60A96070BD0178012905D19F
:1042E00010B500690021FEF791FA10BD7047F8B5CE
:1042F00004460078012617460D4600280DD0606858
:10430000C117090C081800140090E08BA84215DBB7
:104310002420205EA84211DC12E0204600F051F873
:104320000090E08CA84205DA2820205E0026A842F2
:1043300004DC27E02820205EA84208DD002621E0DA
:10434000208CA84203DD2220205EA842F6DB002F4D
:1043500010D06580A08B7D217843C900FBF769FFF1
:10436000401CE0600099691A0A0401461046FBF7F8
:1043700076FF06E021782804012905D0A0600020FE
:10438000E060A0613046F8BD6060F8E710B5044613
:104390004069FFF72DFF0004606010BDC28D11461B
:1043A000028E88B21104084370474068C117090C97
:1043B00008180014704701462C20085E70474069B9
:1043C00070478068C117090C0818001470474261D3
:1043D00001612A21095C0170818D09044160C18D50
:1043E0000904816000214180C160816170470170D2
:1043F0000021C1607047416170470021C160816147
:104400007047027800210B2A04D109210170002194
:10441000818001210846704710B4448803780C431A
:104420009443448082880A4382800A2B07D0002C60
:1044300002D00A2101700B4610BC18467047002CB0
:10444000FAD10B2101700B46F6E781884088000401
:1044500008437047007870470021017041808180D7
:10446000704710B502780024152A73D213007B44DC
:104470001B79DB189F440D142A2D4E5C6164676A1A
:104480006E6E0A1B2025383D4955440000296DD029
:1044900060E003296AD0012968D00C2966D05DE06C
:1044A000072963D00D2961D00E295FD052E00E2973
:1044B0005CD007295AD04DE00F2957D0072955D095
:1044C00048E0022952D0072950D043E007294DD0B7
:1044D00040E007294AD0102948D0042946D01129A4
:1044E00044D0012942D035E011293FD007293DD0E1
:1044F00030E012293AD0072938D0142936D029E0E3
:10450000122933D0072931D024E004292ED00729DD
:104510002CD01FE0132929D0072927D0052925D021
:1045200018E0042922D0072920D005291ED011E047
:1045300006291BD0072919D00CE0072916D009E05D
:10454000082913D006E0092910D003E000290DD076
:104550000C290BD0032907D0012905D0072903D046
:1045600000228021FFF758FF204610BD0124017072
:10457000FAE7000010B5084C2078022805D1FCF7B6
:1045800087FBFCF71BFC00202070C0B2401C207091
:10459000FDF7DAFD10BD0000C605002010B531485A
:1045A000012102688A430A4302600168C907C90FF2
:1045B000FBD02D4C206801210904084320602068AD
:1045C000C0438003FBD4606B012108436063606BD0
:1045D000C0438007FBD4606BF821884380210843E7
:1045E0006063206809030843206060687B21C90379
:1045F00088431121090408436060E06A0009000152
:10460000E062206801210906084320602068C04359
:104610008001FBD46068F0218843606060680721F6
:1046200009028843606061680220890889000143AB
:1046300061600C21606808400828FBD10B48FDF739
:1046400053F90220FCF73CFB002801D072B6FEE7CC
:10465000606B042188436063206B800880002063C6
:1046600010BD00000020024000100240006CDC027F
:104670007047000010B5104CE06C00680169C94338
:10468000C90708D1C168C943C90704D1891E01619E
:104690000A48FEF76DFDE06C00680169C943090630
:1046A00009D4C168C943090605D48021C943016101
:1046B0000248FCF773FA10BD50020020D001002020
:1046C0000948006AC168C943C9070BD10169C943D8
:1046D000C90707D110B50121C94301610248FCF7A0
:1046E000ABF910BD704700001803002003490020FB
:1046F0008988002900D1012070470000A80500200A
:1047000010B505480068FEF761FC002280210348CF
:10471000FFF782FE10BD0000B40500202005002038
:10472000F0B585B0002003903248FCF7D5F8324848
:104730000068FFF744FE0746FFF75EFD01902F4833
:1047400069460068FEF724F9FEF7C8FD0098FDF7FA
:1047500099FB02900199FDF7BBFB0446284D102000
:10476000285E21B2411A27480068FEF777F806460E
:104770001220285E2114411A23480068FEF76EF8C3
:10478000B1B20004014321480068FBF7E5FF06468B
:104790003846FFF735FD30460199FDF7D9FB07464E
:1047A000FEF7A0FE154839460068FEF7F3F801460B
:1047B0002B46DE82300C18836846008828806846C5
:1047C000408868800298A88002989A1C000CE880B3
:1047D000AC81200CE881380C178350830198288421
:1047E000012903D100220A48FFF716FE039805B0FD
:1047F000F0BD0000180300200C050020B4050020C7
:10480000480700201005002014050020B8050020EE
:104810002005002038B50020694608808A48FCF74A
:1048200071F88A480068FEF75BF88948FFF712FEC6
:1048300013281BD201007944097949188F44095C77
:10484000991794BFD1DCF6FF161616687682313FB1
:104850004B008048FCF70EF8002807D000217D4867
:10486000FCF713F803217A48FFF7FBFD38BD7948C0
:10487000FCF709F800280BD077480068FEF7BCFC6D
:10488000142000F059F910217148FFF7EAFD38BDF6
:1048900001217048FBF7F9FF01216D48FFF7E1FDA9
:1048A00038BDFFF723FF0028FAD06B4800210068CD
:1048B000FEF74CF811216648FFF7D3FD38BD664876
:1048C00001210068FEF742F80028F7D01221604865
:1048D000FFF7C7FD38BD5C48FCF79AF804215C4837
:1048E000FFF7BFFD0028F5D00020FCF785F95A48F6
:1048F0000068FEF7BDFB38BD57480068FEF77CFC3A
:10490000142000F019F90D215148FFF7AAFD38BD18
:10491000FFF7ECFE0028FAD04F4800210068FEF7B0
:1049200015F80E214A48FFF79CFD38BD4A48012181
:104930000068FEF70BF80028F7D00F214448FFF776
:1049400090FD38BD45480121017145484549006841
:10495000FFF751FD3F48FBF79AFF02213C48FFF764
:1049600080FD0028C0D138BD05213948FFF779FD09
:1049700038BD3848FBF764FF002811D0364800687E
:10498000FEF724FB364C01212068FFF730FD2E494D
:104990002068FFF730FD07212D48FFF762FD38BD85
:1049A00000242F48254625430068FFF769FCA9B27B
:1049B000000401432C48090C0482418238BD0020C8
:1049C000FCF74CF90020FCF701F906212048FFF71D
:1049D00048FD23480068FFF7D9FC2448FDF784F917
:1049E00038BD40200921C90688622048FDF77CF9BE
:1049F0000020FCF7EBF838BD17480068FEF7E6FA30
:104A00000020FCF7F9F811480068FDF79DFC19201B
:104A1000400100F097F840200921C906886108216B
:104A20000B48FFF71EFD38BD09E0FFE700F090F8E6
:104A30000028F8D009210648FFF713FD38BD0021F2
:104A40000348FFF70EFD38BD180300201C050020A9
:104A50002005002094030020B405002068070020F2
:104A60000C050020A002002048070020240600209A
:104A700005480078012806D110B5002000F006F89E
:104A8000FEF70AFD10BD7047A8050020F8B50646E0
:104A90002248B5000068009021484059FDF73EFECD
:104AA00072006946895A084007461E484059FDF77A
:104AB0004BFF04463C43002E06D11B48FFF736FB54
:104AC0006946098808400443E04382B2062017493A
:104AD0007043471821463846FFF79EFC3846FFF7DB
:104AE000B9FC0A2806D00B2803D10E484059FEF71E
:104AF00023F8F8BD0E484059002802D00021FBF7EA
:104B0000C4FE08484059FEF717F83046FCF774F821
:104B100008484059FDF718FCF8BD0000A4530008F0
:104B200018050020B4050020D8030020200500202F
:104B3000B00500201C050020014988807047000056
:104B4000A80500200149C88070470000A805002082
:104B500003490020C988002900D1012070470000C6
:104B6000A8050020026810211162006802680A434B
:104B70000260704770B402684021116202681368D5
:104B80000B43136002689368802423439360154AA3
:104B9000056983685519203D0468ED7F0833283482
:104BA000EC5003681962C46843681419203CE47F20
:104BB0001D59022635431D5103689C6801252C436D
:104BC0009C60C56843685219203A0468D27F083354
:104BD0002434D45002681162006882680A438260FB
:104BE00070BC70472C56000870B4134BC5684468FD
:104BF0005D19203DED7F6659760876006651C568DF
:104C000044685D19203DED7F0C342951C46841682A
:104C10001C19203CE47F091D65582D0C2D041543FB
:104C200065504168C06818182038C07F0A580123B1
:104C30001A430A5070BC70472C56000870B4134CCD
:104C4000056983686519203DED7F5E59F643F607D7
:104C500018D00C33E95003698168E318203BDB7FEF
:104C6000091D5D582D0C2D0415435D5081680069A8
:104C700020182038C07F0A5801231A430A5070BCFC
:104C80001846704770BC0020704700002C56000882
:104C900070B5194CE0694025C043400600280ADB86
:104CA0001749164849784258520852004250256226
:104CB0001448FBF7BFFBE069C0430107102000293F
:104CC00004DB08212162216801432160E169C943B5
:104CD000C90610D42168C943C9060CD42168814390
:104CE0002160A068A843A060A08CA0682843A060B1
:104CF0000448FBF74EFB70BD003801400000024045
:104D0000A65500083C050020C18840884843000C97
:104D1000704770B504460020A080E080A081E0814B
:104D200060822070206260622085214620862031CA
:104D300008734873E28EE2858874C8742046383060
:104D4000627801210546FBF7E3F93622A25E0121D4
:104D50002846FBF7DDF970BD10B504463830FBF787
:104D6000C9F92046FFF7D5FF10BDF0B50446203045
:104D7000007B83B00D46002825D1002A25D0A08EC7
:104D80007D215043C900FBF754FA401C80B20190CA
:104D9000208561780E270091E75F3846FBF75FFAC0
:104DA0000646618B0A204143E0696843FBF757FAE6
:104DB000801B00040199FBF752FA009941432162DC
:104DC00065853804606203B0F0BDA581618B0A205F
:104DD0004143E0696843FBF742FA61784843E08168
:104DE00000202085658503B0F0BD70B50C460546F2
:104DF000018620466978FBF732FAE880AC8070BD06
:104E00008307FF22DB0E9A408907090E994000288C
:104E100008DB830809489B001B1818689043084367
:104E2000186070470007000F0838830804489B008B
:104E30001B18D86990430843D861704700E400E02C
:104E400000ED00E002E008C8121F08C1002AFAD1F4
:104E500070477047002001E001C1121F002AFBD1FA
:104E60007047000092B0FBF71BFFFFF797FBFE4D6A
:104E700068690121890508436861686908400090F4
:104E80004811696901436961696901400091696973
:104E90004200114369616969114000916A69012109
:104EA0000A436A616969C907C90F00260F960C9603
:104EB0000D960E960A9607960896099605960696FA
:104EC0000296039604960091A96902121143A96102
:104ED000A96911400B9169690143696169690924F4
:104EE000014001200B9100900320E40601906946E7
:104EF0002046FCF72DFC022000900320019069461B
:104F000004962046FCF724FC042000900320019026
:104F1000694604962046FCF71BFC082000900320FD
:104F20000190694604962046FCF712FC1020009080
:104F300003200190694604962046FCF709FCCC4802
:104F4000CA4C01786258CB4B1A40625001786258C3
:104F500003231B039A4301235B031A436250017826
:104F6000625820239A431A4362500278A158402382
:104F70009943A1500278A158802399431943A15025
:104F80000278A15803231B029943A3151943A1508A
:104F9000007821580322920291439A001143215034
:104FA000B54FB86A01210843B862B96A02200143CB
:104FB000B962B86A04210843B862B86A0821084394
:104FC000B862B86A10210843B86220200E900C968F
:104FD0000D960CA90F963846FCF724FB2015069079
:104FE000032009900796089606A90A963846FCF70A
:104FF00037FBF86804218843F8607869C008C0006E
:105000007861F86803218902884321150843F86014
:10501000FDF7BEF9FDF7C6FA0796069608960996BB
:105020000A960C960B960296039604960596A86926
:10503000012189030843A861A86908400D906969A6
:1050400001208004014369616869012189040840E5
:105050000D90402000900220019069468748FCF79F
:1050600077FB802000900220019002960396049620
:10507000694605968148FCF76BFB7D48817862584C
:105080007C4B1A4062508278A15803231B0399433A
:10509000A1508278A15820239943A1508278A15829
:1050A00040239943A1508278A15880239943194302
:1050B000A1508278A15803231B029943A150817803
:1050C00060589A0090436050694841786258694B33
:1050D0001A4010231A4362504178625803231B037D
:1050E0009A4362504278A15820239943A1504178B5
:1050F000625840239A4362504178625880239A4311
:105100001A4362504278A15803231B029943A150CD
:10511000417860589A0090436050E1204002069028
:105120000C20574C07960A90089609960B9606A9EC
:105130000C962046FCF762FDA16820158143A16012
:1051400060680921C90288436060A0682A218843F9
:10515000A0602068012108432060FDF707F90021C5
:105160000D20FFF74DFE47496014086003210F2012
:10517000FFF746FE01204349C003086003211B20BE
:10518000FFF73EFE3F49E803086001210920FFF7D1
:1051900037FE3C496015086000210A20FFF730FE09
:1051A0003849201508600025059540200090069597
:1051B00001200295019003950495079569467804AE
:1051C000FCF7C6FA402079048861000200900120B3
:1051D0002A4C0490019569462046FCF7B9FA2A4802
:1051E0008168012209090901114381608168F02267
:1051F00091431022114381608314E068120503215A
:10520000090688431043E060E068D71296008A00E0
:1052100090433043E06020688843206020689043DA
:105220002060012168460693017745770224847740
:1052300006A8FCF731FA0121684606970177457701
:10524000847706A8FCF728FA03210720FFF7D8FD8A
:105250000C49802008600D48FBF7B4FDFBF738FED1
:105260000520FBF7FDFCF9E70010024000000240BA
:1052700080530008EFBFFFFF0024014000040048F6
:105280000038014000E100E00C000140ED05002085
:105290000822092081B02549C006C161C261C161EF
:1052A000C269042300920A1FC261C361C261C2695C
:1052B000009202228B1FC361C261C361C2690123D4
:1052C0000092CA1FC261C361C261C2690092184ADA
:1052D0001023C261C361C261C2690092154A0823EA
:1052E000D161D361D161D169009113492022C1619B
:1052F000C261C161C16900911049D200C161C2613E
:10530000C161C1690091520081214902C161C2613C
:10531000C161C1690091520041218902C161C2612C
:10532000C161C069009001B0704700000800010031
:1053300010000100000400482000010000010100ED
:1053400070B4521C520855010224E44304611E78D3
:105350000022102E0DD20669F643B6070BD4046165
:10536000521C92B2AA4206D31E78102E03D20120FC
:10537000088070BC70471E78102EECD370BC70474C
:10538000081C3044586C8000000000040404000035
:1053900008000000080000080000000800020406E1
:1053A000080A0C00F9FF0000C90092015B02240307
:1053B000ED03B6047F0548061107D907A2086A095C
:1053C000330AFB0AC40B8C0C540D1C0EE30EAB0FFE
:1053D00072103A110112C8128F1355141C15E215E0
:1053E000A8166E173318F918BE19821A471B0B1C22
:1053F000CF1C931D571E1A1FDD1F9F2061212322E2
:10540000E522A62367242825E825A826672726283D
:10541000E528A329612A1F2BDC2B992C552D112E51
:10542000CC2E872F4130FB30B5316E322633DF333F
:1054300096344D350436BA366F372438D9388C391E
:10544000403AF23AA53B563C073DB83D683E173F0F
:10545000C53F73402141CE417A422543D0437A442F
:105460002445CD4575461C47C34769480F49B44993
:10547000584AFB4A9D4B3F4CE04C814D204EBF4E5D
:105480005D4FFB4F97503351CE51685202539B539F
:105490003254C9546055F5558A561D57B057425875
:1054A000D3586459F359825A0F5B9C5B285CB35CF8
:1054B0003E5DC75D4F5ED75E5D5FE35F6860EB603A
:1054C0006E61F0617162F1627063EE636C64E86456
:1054D0006365DD655666CF664667BC673268A66859
:1054E00019698B69FD696D6ADC6A4A6BB76B236C5D
:1054F0008E6CF86C616DC96D306E966EFB6E5E6F72
:10550000C16F22708370E27040719D71F9715472A5
:10551000AE7207735E73B5730A745F74B274047508
:105520005575A575F37541768D76D87622776B77AC
:10553000B377FA773F788478C77809794A79897997
:10554000C879057A417A7C7AB67AEE7A267B5C7BDA
:10555000917BC57BF87B297C597C887CB67CE37C7D
:105560000E7D397D627D897DB07DD57DFA7D1D7E84
:105570003E7E5F7E7E7E9C7EB97ED57EEF7E097FFD
:10558000217F377F4D7F617F747F867F977FA67FE6
:10559000B47FC17FCD7FD87FE17FE97FF07FF57F4A
:1055A000F97FFD7FFE7F081C3044586C80000000AE
:1055B000002C01400000000000000000000000007E
:1055C00000000000000000000000000005000000D6
:1055D00003000000030000000600000006000000B9
:1055E0000500000092020020920200209402002098
:1055F00094020020920200209402002094020020D5
:1056000094020020920200209202002094020020C6
:10561000920200202100B10043000500B6004300C3
:10562000000101010001000000000000081C3044DE
:10563000586C804E6F20436F6E74726F6C206E6179
:105640006D65004E6F20506F776572204E616D65FD
:10565000204D31005354204D432053444B0956658F
:10566000722E352E592E322D5243310000025A052A
:10567000010200000000B80B00000A00000020003A
:10568000120000000000804000004041CDCCCC3E24
:1056900000000000ACC5A739ACC5A73900E0AB4697
:1056A00000000000000000004E6F204E616D65207C
:1056B0004D3100000000000000000000000000006C
:1056C00003000001E02E0000E803000600070E09B9
:1056D0000B0C050201060F080A0D04030002040664
:1056E000080A0C0E070503010F0D0B09070503013E
:1056F0000F0D0B0900020406080A0C0E0E0C0A0816
:1057000006040200090B0D0F01030507090B0D0F1D
:10571000010305070E0C0A08060402000B090F0D11
:10572000030107050C0E080A040600020C0E080A05
:10573000040600020B090F0D03010705050701030D
:105740000D0F090B020006040A080E0C02000604E5
:105750000A080E0C050701030D0F090B01030507CD
:10576000090B0D0F060402000E0C0A0806040200C5
:105770000E0C0A0801030507090B0D0F0F0D0B098D
:1057800007050301080A0C0E00020406080A0C0EA5
:10579000000204060F0D0B09070503010A080E0C91
:1057A000020006040D0F090B050701030D0F090B7D
:1057B000050701030A080E0C020006040406000295
:1057C0000C0E080A030107050B090F0D030107055D
:1057D0000B090F0D040600020C0E080A0000000061
:1057E0000000000060FA600000E0C000E0C000249B
:1057F0007E247E240024D456480000C6C81026C645
:10580000006C926A040A0000E0C0000000007C8284
:1058100000000000827C000000107C387C1000102A
:10582000107C10100000070600000010101010106F
:10583000000006060000000408102040007C8A9248
:10584000A27C000042FE020000468A92926200445E
:105850009292926C00182848FE0800F49292928C62
:10586000003C5292920C00808E90A0C0006C9292EC
:10587000926C00609292947800003636000000002E
:1058800037360000001028448200002424242424F9
:105890000000824428100040809A9060007C82BA08
:1058A000AA78007E8888887E00FE9292926C007CA6
:1058B0008282824400FE8282827C00FE92929282E8
:1058C00000FE90909080007C8292925E00FE10100C
:1058D00010FE000082FE8200000C020202FC00FEAC
:1058E0001028448200FE0202020200FE402040FE18
:1058F00000FE402010FE007C8282827C00FE9090A0
:105900009060007C828A847A00FE909098660064A1
:105910009292924C008080FE808000FC020202FC89
:1059200000F8040204F800FC023C02FC00C6281047
:1059300028C600E0100E10E0008E92A2C200000007
:10594000FE82820000402010080400008282FE00D7
:105950000020408040200101010101010000C0E061
:10596000000000042A2A2A1E00FE2222221C001CFB
:1059700022222214001C222222FE001C2A2A2A1083
:1059800000107E90900000182525253E00FE202066
:105990001E00000000BE020000020121BE0000FE49
:1059A00008142200000000FE0200003E2018201E05
:1059B000003E20201E00001C2222221C003F22222A
:1059C000221C001C2222223F00221E222010001036
:1059D0002A2A2A0400207C222400003C02043E00E3
:1059E000003804020438003C060C063C0036080867
:1059F0003600003905063C0000262A2A3200001035
:105A00007C828200000000EE0000000082827C1098
:105A10000040804080000000000000000000000006
:105A20000000000000003F400000000000000000F7
:105A30003000400030004000000009000BC03D0075
:105A40000BC03D00090018C024407FE02240318097
:105A50000000180024C01B000D803240018003802C
:105A60001C4027401C8007400040100060000000E0
:105A70000000000000000000000000001F80204027
:105A800040200000402020401F800000000009004E
:105A900006001F80060009000000040004003F808B
:105AA000040004000000001000600000000000007E
:105AB00000000400040004000400040000000000D2
:105AC00000400000000000000000002001C00600AF
:105AD0003800400000001F802040204020401F80F0
