:020000040800F2
:10000000D8100020D9000008E10000085D170008A2
:1000100000000000000000000000000000000000E0
:10002000000000000000000000000000E5000008E3
:100030000000000000000000E7000008714A00080E
:10004000EB000008EB000008EB000008EB000008E4
:10005000EB000008EB000008EB000008F9110008B5
:10006000EB000008791100088D110008B11100089B
:10007000EB000008714B0008EB000008EB000008E3
:10008000EB000008EB000008EB000008EB000008A4
:10009000EB000008EB000008EB000008EB00000894
:1000A000EB000008EB000008EB00000831520008EC
:1000B000EB000008EB000008EB000008EB00000874
:1000C0000448854600F0CEFD004800475955000819
:1000D000C046C046D8100020044880470448004766
:1000E000FEE7FEE7FEE7FEE7FEE7FEE76D4B0008F2
:1000F000C100000870B506466830049D2EC000247B
:100100000546383D0C362C7521466C75783802E072
:10011000B668641CE4B2002E01D0052CF8D3224648
:100120000C235A43121891602C72008864214843B2
:100130007D21C90000F059FDA87570BDF0B50446D9
:1001400087B0C06E0090A06E01900E46E1802746F9
:100150000021403779753976F974254639750C35A3
:10016000009805F044F90021019804F0BEFB608876
:10017000704301B2009805F0AAF9002211460198D7
:1001800004F033FBA8882A88704301B2019804F078
:100190002CFB68882A88704301B2009805F057F953
:1001A0002888218848437D21C90000F01EFD401C9D
:1001B000A080A868A0600020F87507B0F0BDF0B579
:1001C000044683B001200290A088254640350028CF
:1001D0007ED0401EA080287E002805D1687D0028A2
:1001E000206F05D041688847A088002870D0D1E0F2
:1001F000C16800290BD0E97D491CC9B2E975AA7D07
:10020000914204D9C16888470020E874E875206FDE
:1002100001698847002803D0E87C7F2801D2401C70
:10022000E874206FC1680029E97C04D0AA7D5208D7
:10023000914202D0D8E77F29D6D1006804F056FA5F
:100240000090002800DA404207B20620205E002815
:10025000009802DD002805DC01E0002802DB002018
:10026000E874C1E76989B8B2884205D9206F41684E
:10027000884701206875B7E7A9898842B4D900206A
:1002800006460190E06E05F0DEF8206F8168884731
:10029000A068002831D00221415EB94210DAA1687D
:1002A000886800282CD002228A5E042601928E5F84
:1002B000A060297E491C29760221415EB942EEDB0D
:1002C000A0680222825E0199511A0422825E00E037
:1002D00018E00098921B504300F09DFCE1888019C3
:1002E000414309B20022A06E04F07FFA0120A080F1
:1002F00020465C30A06006203DE00020A0803CE06D
:100300000020A080A068002837D0287E002802D0D6
:1003100001280BD00FE0606F02F004FE0120287569
:10032000606F02F003FE0020E87404E0606F02F0EA
:10033000FBFD00202875A068E2888188514302886F
:1003400009B2A06E04F051FAA068E28841885143D6
:10035000028809B2E06E05F07AF8A6682188308834
:1003600048437D21C90000F040FC401CA080B068DB
:10037000A060287E401C28760CE0297A287E491E41
:10038000884202D10020029004E0072802D1002018
:100390002876A080029803B0F0BD70B5044680882E
:1003A0000125002804D0401E0004000CA08025D1A7
:1003B000A068002821D08188E2885143028809B2D0
:1003C000A06E04F012FAA068E288418851430288C6
:1003D00009B2E06E05F03BF8A668218830884843F2
:1003E0007D21C90000F001FC401CA080B068A06025
:1003F0004034207E401C207600E00025284670BD59
:100400000C22514309180E20085E70475822125CD6
:100410000C235A431218D0890021002800D1012151
:1004200008467047014689680020002900D1012054
:10043000704710B50021C46E81608180204604F0B1
:1004400055F901460022204605F001F810BD01468D
:1004500040310A7E497A00208A4200D30120704749
:100460000C2359430818828170470C2359430818FC
:10047000C28170470C23594308180282704710B498
:100480000C2461439388081803825188C181118824
:10049000818110BC012070470C22514308188089CB
:1004A00070470C22514309180E20085E70470C2239
:1004B000514309181020085E70474030007A704799
:1004C0000C2359430818018A9180C1895180808981
:1004D0001080012070474030007D7047F8B5002142
:1004E000016641668166C16681800246C181E03253
:1004F0009175D17511765176FC22C71D1150F937CF
:1005000039603A462032B9609170D170BC7B002CC2
:1005100015D00023E207D20F02D074231952012311
:10052000A2420CDA5D002D184035A9865B1C5D00E7
:100530002D184035921C5B1CA986A242F2DBF422E6
:100540001154B9810021343002F056FBF8BDF8B5E2
:100550000446FF300130827DF6210A5501210171E8
:100560000D46002767862E21615EFF480E4600F08B
:1005700052FB00B2002808D0C10F0818618E40104D
:10058000491C6D0061860028F6D128B22086704390
:10059000F64900F040FB60852046FFF79FFF2046AC
:1005A000343002F01FFB6782F8BD7047F0B5044697
:1005B0002E23E35E806EDA03D21A93B0904201DDFF
:1005C000A26604E0DD035D1BA84200DCA566A56E03
:1005D000E01DF93002951290C68B354128B2E56EC8
:1005E000954205DCDA039A1A954201DDE26E00E0DD
:1005F000E26605922C253241655F276EEB035B1B9B
:1006000012B29F4201DD236604E0EE03AE1BB74247
:1006100000DC2666666E9E4203DCEB03EB1A9E420C
:1006200000DC6366236E0193129D676E2E7F8D88BA
:1006300033411BB29C465B1B06971DB237413FB24C
:10064000CB88BE46FB1A1EB20B8900270B93CF5FE7
:100650007B431B140A930227CF5F0B9B20217B4314
:100660001F140C97615E634611915943019B5B1AFD
:100670002221615E0F9169435F182821615E0A9B08
:100680000E9159437B182421615E0B914143591A05
:1006900001912621615E0D91029B69435D18618E77
:1006A00013468C460B412A21615E049159430E2367
:1006B000E35E774659436918029111997943069F81
:1006C0007D1A0F990C9F71436D180E9979436D181F
:1006D0000B995143691A06910D99059D71436D1847
:1006E000614606460E41049971431E464E4321461B
:1006F000AF1B40310886FF254A862535295700293A
:1007000005D1002B01DB012101E00021C943484351
:1007100005B24A43504206B20420205E01F0E0FEDA
:10072000011400B269437043C013C91300B209B287
:10073000411A2046343002F087FA20822146E03107
:100740000A7D129B521C9D7BD2B2954200D10022A1
:1007500055002D194035AE8E9E81A8860A75A18858
:10076000081800B2A080019921660299A166069935
:10077000E766616613B0F0BDF3B50446FF3085B09F
:10078000013000220090867B17460392019204926A
:1007900010460292002E08D9410009197423CB5E3D
:1007A000401C9A18C0B2B042F6D33146104600F051
:1007B00032FA05460020002E0AD941000919742298
:1007C0008A5E401C511B49437F18C0B2B042F4D32B
:1007D0003146384600F01FFA014628466843024673
:1007E0000098008A5043C217520E1018C01181425F
:1007F00001DA01200490608BA27868435043E169DC
:1008000000F009FA617800F006FA0699254608809A
:10081000A081E035049E6E750099097901290CD0FC
:1008200001200290287E002840D0029840420640D5
:100830000020002E40D0E87538E0002800DA404261
:100840000099498B814228DD224640323021515E99
:10085000134632229A5E49435243511803911421A0
:10086000C203615E101A00F0D6F901460098407E7E
:100870004843C217920E101880114843C117890EC1
:100880000190081881110098007E41430198401A98
:100890000399814201DD0120029002986876FC21D3
:1008A00003980851009801990160BBE7204606991A
:1008B00003F034FF07B0F0BDE97D491CC9B2E9750A
:1008C000009AD27D9142F1D3E875E0782070002043
:1008D00007B0F0BD70B4F424245CC21DF93264008A
:1008E000F421241874260D5CA65FD17B937B946859
:1008F000591A341900290FD06918994200DBC91A16
:10090000490009187423CB5EE31A148C194621415F
:10091000C181936070BC70470C21515E631AF4E78B
:10092000F0B40246FF322132D3780025012B01D1E9
:100930000C21415E93780246E032012B35D00C2326
:10094000C35E1C464C43002C36DD002B01DA5B42B3
:100950001BB2002901DA494209B2C41DF934A67C50
:100960004E43F7173F0F03E05EEA0F00BE2800007A
:10097000BE19361136B2B446E67C4E43F117090F64
:1009800089190911567D09B2012E13D1A78A9EB289
:10099000BE420FD98B420DDB63450BDC917D491CB8
:1009A000C9B29175A37D994206D301251576002120
:1009B000017001E0002090752846F0BC704740307F
:1009C000028E1146428E88B2110408437047FF23FD
:1009D0001D331B5C016E19410A46416E90B21941EC
:1009E000090408437047438C0B80C08C108070470B
:1009F0004184C284704770B5343014460D460646B3
:100A000002F0E8F82880304602F0DAF8208070BD65
:100A100070B534301446054602F00AF921462846DE
:100A200002F0F3F870BD704710B500680021343053
:100A300002F0E2F810BD10B50021343002F0DCF80D
:100A400010BDF8B50446343015460E46074602F090
:100A5000BBF870430146384602F0CEF8A580F8BDD9
:100A6000FF300130006870478030C06F7047FF3042
:100A7000013001717047E030407E70470068E0301F
:100A8000407D704700680121FF3021308170704740
:100A900000680121FF302130C1707047FF30013004
:100AA00081827047FF30213001717047002202704F
:100AB00011460C234B431B185A60491C9A60C9B25B
:100AC000DA600529F5D37047F7B586B0069900209E
:100AD0000B5602930799002900DC49420491002A31
:100AE00002D0012A03D005E0002009B0F0BD07982C
:100AF00009B0F0BD0C21069B4143C918C968914259
:100B00001FD1411C21D00C214843C1188D68486871
:100B1000049A83B291B20C465C43120C5343240CEA
:100B2000000C1B199CB2414309194243080C1B0CD1
:100B3000C0181018079928410029D9DC404209B093
:100B4000F0BD401C40B20528D4DB01920392002A7C
:100B500001DA544200E014460120D10FC0070D18FD
:100B60002146284600F041F8691A491E1F25E8076A
:100B7000009100F03AF8009906464843E9070F1A39
:100B80002146E80700F031F801466143EA07511AAF
:100B9000009A76007F006D1C974201D3BF1A761C25
:100BA00040004900A14201D3091B401C621A964231
:100BB000EED3964201D1002FEAD00199401C0029C2
:100BC00000DA4042029A0C235A43069B0399D2183A
:100BD000203D9560D16050600299491C49B20529B9
:100BE00000DB0021069A117092E730B50B460146F2
:100BF00000202022012409E00D46D5409D4205D366
:100C00001D469540491B2546954040191546521EE4
:100C1000002DF1DC30BD70B500242546002801DA36
:100C200001244042002901DA01254942FFF7DDFF96
:100C3000AC4200D04042002C00D0494270BD034677
:100C40000B439B0703D009E008C9121F08C0042A00
:100C5000FAD203E00B780370401C491C521EF9D2F3
:100C600070470000064C0125064E05E0E36807CCFE
:100C70002B430C3C98471034B442F7D3FFF724FAC7
:100C8000187A0008387A000870B58C180578401C6E
:100C90006B075B0F01D10378401C2A1106D1027843
:100CA000401C03E006780E70401C491C5B1EF9D105
:100CB0002B0705D40023521E0DD40B70491CFAE7F4
:100CC0000378401CCB1A921C03E01D780D70491C60
:100CD0005B1C521EF9D5A142D8D3002070BDF8B5D7
:100CE0000121C2698C465106490F0091437F017F63
:100CF0009C06D30240301201C67BC909A40E5B0ECC
:100D0000520E8E4200D30E46C673057CA54200D318
:100D100025460574477C9F4200D31F464774BE4654
:100D2000877C974200D317468774B14209D1AC4201
:100D300007D89E4505D1974203D1C07C00998142D6
:100D400001D0002084466046F8BD30B400224D2119
:100D50000A5401464469C36B2046042230BC1C314E
:100D60001847000070B504464034627B002101251D
:100D7000002A04D0012A01D16173657270BDC16976
:100D8000194ACBB2D35C0E04360E5E40935D0E0260
:100D9000360E5E40935D0E0E5E40925D002A01D0DD
:100DA00004201DE0027F1207120FA273052A19D03A
:100DB000062A17D0092A01D0A57270BDC903C90C33
:100DC000A1800FD0E288914209D8E27B43695200AA
:100DD0008A18C66B81691846B047657370BD0220DA
:100DE000A07270BD657270BD745C000870B5044679
:100DF000203422790021032A0AD0026B9171A27B50
:100E00000325022A06D02279022A0ED0016370BD82
:100E10002171F4E70146283101634669828D036C34
:100E2000816A30469847A57370BD04634369066CB8
:100E3000042221461846B047257170BDF8B5064614
:100E4000002000900027F06935460F8040356A7A0F
:100E500034462034002A79D000226A722A7B374631
:100E60004F37002A05D03623012A32D0022A53D127
:100E70006DE0A97B052902D0062912D097E0304603
:100E8000FFF72DFF002831D0687C41012031B1816E
:100E9000A97C01208A01F281297C49012031E98065
:100EA00023E0297A2246CC07E97AE40F0D07A7014F
:100EB000062100013943E401030C21432C0D214399
:100EC0001B031943116030460423002100F08AF807
:100ED0006DE0A97B052902D006291ED067E03046C7
:100EE000FFF7FDFE002841D000E0287339793B78F8
:100EF0000901DB01491D19437B7830461B02194368
:100F0000BB7822469B031943FB785B05194321609C
:100F10000423002100F066F849E022462C7A000103
:100F2000E407010CE40FA001EF7A03433F07E4015B
:100F30002343380D034308030343136004230021B4
:100F4000304600F04FF80220287330E036E0A87BEE
:100F5000052804D006280BD009281FD027E03046EA
:100F6000FFF7BDFE002801D00120BEE70020BCE74E
:100F700022462C7AED7AE407E40FA7013B43E40113
:100F8000717F2D0723432C0D234309030B4313606B
:100F900030460423002100F025F808E0287A401CA0
:100FA000287201203074A8880880B069009004225B
:100FB0003146F36B1C317069984711E0A97A00291A
:100FC0000ED00B0209040F330B4323603046224638
:100FD0000423002100F006F8AF72B16B70698847F6
:100FE0000098F8BDF8B515461268214E9E46D7B256
:100FF000F75D13041B0E5F40F75D13021B0E5F408D
:10100000F35D1601360F5E401A4B00249B5D1B07F3
:101010001A432A6072B60246036B2032002B06D0B8
:1010200062B602230A2914D0002919D01EE0032336
:101030000A2909D01371026362B672464669036CCD
:1010400029463046984711E00146937328310163E1
:10105000F2E7917B012906D193737146818505E002
:101060001079002801D0032400E013712046F8BD58
:10107000745C0008645C000810B401230A2A0AD1D9
:1010800002462032947B012C05D8806A001D08603E
:101090000120907300E0002310BC1846704770B523
:1010A0001C46034640331D7B022D01D0022070BD3B
:1010B00015012543091F0D60DB7B012B06D1CA25D5
:1010C0008B181D71FE25921C5D7192B20A2C04D101
:1010D000037C002B08D000230374121D93B20A4630
:1010E0002146FFF77FFF70BD012070BD10B504469B
:1010F000616B40698847204600214030017341738D
:10110000017204222146E36B1C316069984710BDCF
:10111000F0B4034604880DB2084609145B882F46D4
:101120000A466F4349431E4664435E437F18A74205
:101130001EDD104FB1420BDC611ACB171B0B591887
:1011400009154900795A002D00DA494213460CE08E
:10115000002A00DA5B42A11BCA17120B51180915AD
:101160004900795A002D00DA494288B2190408432F
:10117000F0BC7047FE71000810B5034907204860B5
:1011800003F036FD10BD00000000024006490120BA
:101190000B68400202469A4305D110B548600348E7
:1011A000FFF7E0FD10BD7047000002405806002028
:1011B00004480168C943890302D4012149044160FC
:1011C000704700000000024070B40A4C00236569BB
:1011D0003021A2694843A1699142FCD0914201D2D9
:1011E000521A01E06E1AB218D3180A468342F2D39B
:1011F00070BC704700E000E070B51A4D68691A4C89
:10120000C043C0040CD4A81468611920FFF7DCFFA8
:101210002069C043C00403D50121144800F0A6F999
:101220006869C04380041CD4012040036861192010
:10123000FFF7CAFF2069C043800412D52069C0436C
:1012400041040B4802D40178491C05E02169C943D7
:10125000490402D50178491E01700221034800F0BB
:1012600085F970BD00040140000400480907002012
:101270000407002002468032D16C78235B5C022B8D
:101280000AD14B6809699962D16C8B684969996286
:10129000D16CCA68896991620121C0300172002055
:1012A0007047000010B52621074A41438C182421BD
:1012B000095D002906D105498000085803F05EFA4F
:1012C000E083208210BD0000640800202806002072
:1012D00070B526224243124B0021D2181180518052
:1012E0009180D1809181D18111825182D183D1822B
:1012F00011835183840091830A481184005901F0BD
:101300007BFC09480021005901F076FC0748005990
:1013100003F061FA0648005901F004FE70BD0000B8
:10132000640800202C06002030060020280600203B
:10133000CC0600207047000070B5044600F00EF89F
:101340000546601C02D004480078241800F006F816
:10135000401BA042FAD370BD1C07002001488068E2
:10136000704700001C070020024881680278891835
:10137000816070471C07002010B5064801681022E4
:1013800011430160022000F007F800F027F8002068
:1013900010BD00000020024070B504460D4D7D20B8
:1013A0002978C000FFF721FC01460B480068FFF7D1
:1013B0001CFC00F051F8002809D1042C07D20022AF
:1013C0002146401E00F01EF800206C6070BD012018
:1013D00070BD00001C07002028070020084881B0CD
:1013E0008169012211438161816911400091C269C3
:1013F00001040A43C261C0690840009001B070470F
:10140000001002408207D30EFF229A408907090E7E
:101410009940002808DB830809489B0018180368D6
:1014200093430B43036070470007000F083883089D
:1014300004489B001B18D86990430843D861704743
:1014400000E400E000ED00E00148006870470000A3
:1014500028070020704700000B4910B4401E884246
:1014600002D910BC0120704708494861084807228A
:10147000C3691B021B0A4C042343C361002088611B
:101480000A6110BC70470000FFFFFF0000E000E0B1
:1014900004ED00E010B5FFF7DDFF10BD10B5044608
:1014A00000F07EF900F008F800F0E8F90020207064
:1014B00000F028FA10BD000070B582B00124182594
:1014C0000C23532200212B200095019400F054FAA4
:1014D0000C23502215212B200095019400F04CFA8A
:1014E0000C26062357221F216E200096019400F03F
:1014F00043FA08250623252238217A2000950194F5
:1015000000F03AFA062313A22E212B20009500F0BA
:1015100041FB00F085FB062310A22C21052000963C
:1015200000F038FB06230FA22E216E20009500F05C
:1015300031FB06230BA20A216E20009600F02AFB45
:10154000062309A202216E20009500F023FB02B0C1
:1015500070BD00005345543A0000000049444C451A
:101560000000000052504D002063770002461378BF
:101570000020002B0AD0012B0FD0022B10D0032B00
:1015800003D1002901D10120117070470129FAD03F
:101590000229F8D00329F6D070470329F3D0704709
:1015A0000329F0D07047000010B5054C6088002872
:1015B00001D0401E02E000F005F81420608010BD4C
:1015C00008070020F8B55848584C0078002815D076
:1015D000012847D0022872D0032842D100F04EF9EA
:1015E00000F090F9611C0A780020002A39D0012A05
:1015F00037D0022A35D0032A33D131E04E484D4F3F
:10160000006800904A4D384600F056FE29884B4E3F
:1016100088420BD1009801F054F96988884205D1BD
:10162000306801F092FAE97988421AD0384600F021
:1016300043FE002800DA40422880009801F041F97A
:10164000688080082070306801F07FFA3649E871C0
:101650000A780320002A03D0012A01D0022A00D1EF
:101660000870F8BDA06800F079FE0C250628A06877
:1016700010D000F073FE0028A06815D000F017FE0F
:10168000294903200A78002AEAD0012AE8D0022A50
:10169000E7D1E5E700F09AFE062329A22C210520D8
:1016A000009500F077FAEBE700F085FE062326A20E
:1016B0002C210520009500F06DFAE1E7FFE72448B2
:1016C000002141568A008918A288891809B2A18090
:1016D000002202702320000109184200914200D923
:1016E000A080082506231BA202216E20009500F091
:1016F00051FA0420205E002806DD062316A20221EE
:101700006E20009500F046FA04210022615EA06878
:1017100000F0BDFD044903200A78002AA0D0012A68
:101720009ED0022A9CD0F8BD09070020080700209F
:10173000140700204007002038060020340600204F
:1017400049444C450000000052554E202000000046
:1017500004070020636377002063770003F038FA02
:10176000FEE700007F2817D83F2915D810B4CB0812
:101770000724E31A2140641A0121A140074CC0004C
:101780000019DBB2002AC25CC9B201D00A4300E0F2
:101790008A43C25410BC704770470000D408002030
:1017A000F0B587B000243248324D05940126032756
:1017B000009003940494694602970196284600F02D
:1017C00035FB80200090092003946946029701961A
:1017D0000494C00600F02AFBAE61F002A861042068
:1017E000A8620520FFF7A8FD0420A8610A20FFF7E2
:1017F000A3FDE22000F064FAA02000F061FAC0200E
:1018000000F05EFAA22000F05BFA2C2000F058FAFB
:101810002E2000F055FA2F2000F052FA252000F07B
:101820004FFA812000F04CFA0F2000F049FAAF2067
:1018300000F046FAE02000F043FA402000F040FAC1
:101840000520FFF779FD0C4B00200021CA00D218BB
:101850001454491CC9B28029F8D3401CC0B20828CE
:10186000F3D300F04FF800F04DF807B0F0BD0000E2
:101870000708000000040048D4080020F0B583B039
:1018800018260C251D4C01960095228806204243FF
:10189000042300213C2000F02CF901960095628879
:1018A000042315213C2000F024F9154D0422AA5EE2
:1018B000062008264243074601960090002A00DAD7
:1018C000524204232E21522000F013F90097019672
:1018D00003232A783821672000F00BF92A783C216D
:1018E000002000F0B3F800970196E2790223072167
:1018F0000B2000F0FEF803B0F0BD0000140700203C
:1019000008070020F0B509260027F6060125184C27
:10191000ED023846B030C0B200F0D2F9102000F02D
:10192000CFF9002000F0CCF900221248D1000818AD
:10193000C15DA5620220A06100200123A3620B0605
:1019400002D58023B36101E08023B3620123A36148
:101950004906401C090EC0B20828EED3A561521CEE
:10196000D2B2802AE1D37F1CFFB2082FD1D3F0BDC1
:1019700000040048D4080020FFB589B0129E0C4630
:10198000F0080591710700D0012140180C99203A08
:101990004843C1B20191002100910199D0B20029C0
:1019A0004CD90621264A4143891804910C21254A25
:1019B0004143891803912421484323494018029048
:1019C0000C9806280BD00C2838D1182E36D1009947
:1019D0000298455C002728060DD5139A0FE0082EC3
:1019E00005D00C2E2AD100990398455CF2E70099A6
:1019F0000498455CEEE71398002812D00022214697
:101A00000998FFF7AFFE6806050E641C0598E4B25E
:101A1000201AB04207D10998059C401CC0B2099019
:101A200005E00122EBE77F1CFFB2082FD3D300981B
:101A30000199401CC0B200908842C1D30DB0F0BDE6
:101A4000745D0008AE5F000822640008F7B583B03B
:101A5000064600270090481E0C4601910290002582
:101A60002146641CE4B200223046FFF77BFE6D1C69
:101A7000EDB2022DF4D33046761CF6B20022214698
:101A8000FFF770FE02987F1CFFB2C4B2642FE6D34A
:101A9000019E009D00242846691CCDB201223146DA
:101AA000FFF760FE641CE4B2642CF4D302980027B4
:101AB000C4B20598009E002819D900252146641C4F
:101AC000E4B201223046FFF74DFE6D1CEDB2022D4F
:101AD000F4D33046761CF6B201222146FFF742FECF
:101AE00002987F1CC4B20598FFB28742E5D306B0C6
:101AF000F0BDFFB5002683B01D463446002B38D913
:101B00000127FF07681E0290281B401EC0B2034633
:101B10000A220121401E002B0ADDC307FB4200D030
:101B20000A21401C401003D051435143401EFBD1B9
:101B30000598FFF75AF80A21FFF757F8002E05D14C
:101B40000298844202DA002915D0012601220D985C
:101B5000303101920090CAB20C980399604340184A
:101B6000C0B20C9B0499FFF707FF641CE4B2AC42BF
:101B7000CAD307B0F0BD0D980121009001910C98D7
:101B8000039960434018C0B220220C9B0499FFF7D0
:101B9000F3FEEAE7FFB50646107884B02038174612
:101BA0005E2839D807988021081A03900D984021A3
:101BB000081A1A4D002402900398B04205DA0D99D4
:101BC000059800264018C0B20590059902988842F1
:101BD00010DA0026314605960020C20052195454EE
:101BE000401CC0B28028F8D3491CC9B20829F3D3DD
:101BF000FFF788FE0D980121009001913A78304658
:101C0000079B0599FFF7B8FE07983018C6B2787899
:101C10007F1C20385E28CFD908B0F0BDD408002042
:101C2000F0B58DB002202021039024480C9107903C
:101C30000420062409910890049000202646029072
:101C400000200090049800282FD908990298484352
:101C5000069000990798069A4018175C00253806E8
:101C600005D5012221460398FFF77CFD04E0002200
:101C700021460398FFF776FD7806070E641CE4B250
:101C80000C98A11B814205D103983446401CC0B278
:101C9000039003E06D1CEDB2082DE0D30098049989
:101CA000401CC0B200908842D3D302980999401CCE
:101CB000C0B202908842C3D30DB0F0BD7E7100085F
:101CC00030B401240D49E4028C6202228A620022AF
:101CD0000925ED0601238B62030602D58023AB6143
:101CE00001E08023AB6201238B614006521C000E91
:101CF000D2B2082AEED38C6130BC70470004004891
:101D000070B483680022DB43DB0710D08C684B681B
:101D1000C5682343CC68084E35402C432343C36039
:101D2000036909689B009B080B43036100E00122E3
:101D300070BC104670470000C73FFFFF30B4836897
:101D40000022DB43DB070ED04C680B68CD682343D1
:101D50008C6809692C4323430B43C168044C214020
:101D60000B43C36000E0012230BC10467047000006
:101D70003CC2FEFF10B4047900232B490268002CFA
:101D800047D0002A4CD04479002C0FD0012C15D01C
:101D9000022C1BD001238279002A41D0012A1DD0B8
:101DA000022A24D0032A2BD0012339E04C68944323
:101DB0004C6002680C6814430C60ECE70C689443B8
:101DC0000C6002684C6814434C60E4E70C681443F0
:101DD0000C6002684C6814434C60DCE70268CC6815
:101DE0009443CC6000688A6802438A6018E0026805
:101DF0008C6894438C600068CA680243CA600FE034
:101E000002688C6814438C600068CA680243CA6028
:101E100006E00C6894430C6000684A6882434A609C
:101E200010BC18467047000000040140F0B40A6876
:101E30000024002A51D001230A68A3401A4048D048
:101E40004B68012B01D0022B10D18E688568134698
:101E500053435F00DF19BD4373431D438560CE6864
:101E60000B6845689D4373431D4345600F69C66811
:101E7000134653435D005D19AE435F433E43C66066
:101E80004E68022E1FD1FF2A0ED817464A69066AED
:101E900094461A467A437A431701BF1ABE436746EF
:101EA0007A43164306620EE0160A324672434F69C1
:101EB00072437243BC461601B71A466ABE43674670
:101EC0007A43164346624E6802687343AA431A4334
:101ED00002600A68641CE240ADD1F0BC002070478B
:101EE0000149086070470000280700200A7B03238F
:101EF0001B029A438B681A4301239B029A434B6847
:101F00001A430123DB029A430B681A4301231B0384
:101F10009A43CB891A4301235B039A430B694969AE
:101F20001A4301239B039A430A435B009A430A43E3
:101F30004264002070470000F0B402681D4B012489
:101F4000A4071D4D984203D0A04201D0A84203D15E
:101F50007026B2434E683243184E194F98420DD046
:101F6000A0420BD0A84209D0164CA04206D0B042E5
:101F700004D0B84202D0144CA04204D1032424025D
:101F8000A243CC68224302608A68C2620A888262E5
:101F9000984206D0B04204D0B84202D00A4A9042D9
:101FA00001D1096901634169012211434161F0BC1A
:101FB00000207047002C0140000400400040014018
:101FC000004401400020004000480140F0B50124D9
:101FD0000023844D844E01293BD0102979D0FF394C
:101FE000491E75D00F273F02B94230D1046AA914A7
:101FF0008C430462076A4468BC46C16973273F0288
:10200000B94317683F0239438E46674669148F43C8
:10201000116909030F43A9148F43516809030F4342
:10202000A84207D0B04205D07049884202D070491A
:10203000884205D1012189038C43916989010C43B0
:1020400044607146C161D168016407621C46204644
:10205000F0BD016A490849000162046A4168A64668
:102060008469A708BF007024A74314682743BC46AF
:1020700074460227BC4317693C43640857686400F0
:102080003C43A84207D0B04205D0584DA84202D0E8
:10209000574DA84214D10825AC435569AD002C43D7
:1020A0000425AC439568AD002C43FF250135A943B9
:1020B0009569294301256D02A943D5696D0029431E
:1020C000416061468161D1684163046241E000E0A2
:1020D00041E0016A1024A1430162076A4468BC46DA
:1020E000816973273F02B94317683F0239438E461F
:1020F000674620218F43116909010F4310218F4347
:10210000516809010F43A84207D0B04205D03749B2
:10211000884202D03649884215D180218F435169C7
:1021200089010F4340218F43916889010F430121A9
:1021300089028C43916989000C430121C9028C43B7
:10214000D169C9000C43446071468161D1688163E3
:1021500007621C467BE7016AFF240134A143016248
:10216000076A4168BC46C4697027A408A400BC4340
:1021700017683C43A646012467466402A7431469D6
:1021800024022743FF240134A74354682402274331
:10219000A84207D0B04205D0144CA04202D0144C43
:1021A000A04217D10124E402A7435469A4022743A3
:1021B0000124A402A7439468A40227430124240312
:1021C000A14394692401214301246403A143D469F8
:1021D0006401214341607146C161D168C1630762F6
:1021E0001C4634E7002C01400040014000440140FF
:1021F0000048014010B50446406802F04DFBA1685C
:102200000882000C488210BD10B50068012102F060
:10221000A6FB10BD002839D010B50446007E012869
:1022200033D1217B0020012904D0022910D00329B9
:1022300029D11EE0A168203108710121606802F0F7
:1022400054FB0E21E28A615E606802F0CEFA0CE077
:10225000A168203108710021606802F046FB10215E
:10226000E28A615E606802F0C0FA00280BD00220AA
:102270000AE0A168012020310871A068618A01820A
:10228000A18A4182F3E70320207610BD7047012325
:102290000373C181C28203764376704702230373BE
:1022A0000182C2820121017600214176704710B57A
:1022B000006802F024FB10BD10B5406802F0FDFA82
:1022C00002F014FA10BD407E7047836819880846F2
:1022D000598880B209040843704783689988084682
:1022E000D98880B2090408437047014601200B7B5E
:1022F000821E012B08D0022B0CD0032B03D11223FA
:10230000CB5E002B04DB70470E23CB5E002BFADA8A
:10231000104670471023CB5E002BF9DB70478368B3
:1023200099890846D98980B20904084370478368AF
:10233000198A0846598A80B2090408437047C08A3E
:10234000704701460E20085E704701461020085E67
:10235000704710B5406802F0A6FA10BD10B50068CD
:1023600002F0F6FA10BD81681E20085E704783688F
:10237000598B0846998B80B20904084370478368DB
:10238000D98A0846198B80B20904084370478360D4
:102390004260016000210173C1810182C182017626
:1023A0007047032202734182091481820121017660
:1023B00000214176704710B504460068032102F001
:1023C000CEFA002801D00121217610BD10B5006899
:1023D000072102F0C4FA10BD10B5406802F08BFA74
:1023E00010BD000001B2120C12048BB21A430D4B47
:1023F000001459435843091808180B494042C013A8
:10240000CB43884203DC1946884200DB01B290B21C
:102410000A041043994203D1044980B209040843D5
:1024200070470000E6490000FF7F00000180FFFFC9
:10243000F8B50546084600F053F829B22A140B46B1
:1024400006B20714154671437D43481B1449C51352
:102450008D4201DD084603E01248854200DB28B2C8
:10246000250C2D0484B225430E4CA04203D12D0C23
:102470000D482D0405437B4372439818C0138842CE
:1024800004DCA04201DA214600E001B2A8B20A044D
:102490001043A14203D1054980B209040843F8BDA5
:1024A000FF7F00000080FFFF018000000180FFFF30
:1024B00070B50546084600F013F8024629B203B28B
:1024C00028140E46121405465E43554375195143B0
:1024D0005843401AED13C113A8B20904084370BD54
:1024E0000122D203821812040323920D1B021A4008
:1024F000012330B4DB03C11889040C0E6300FF25EF
:102500002C1B1E496400002A1FD0FF3A521E29D0FE
:10251000FF3A521E0ED0FF3A012A09D10A5BC95A6E
:1025200080B2120410434942000C000489B20843EF
:1025300030BC7047CA5A80B21204095B1043000CC9
:10254000000489B230BC08437047CA5A095B524242
:1025500080B2120410434942000C000489B230BC1E
:10256000084370470A5B80B252421204C95A1043B2
:10257000000C000489B230BC084370473E59000883
:10258000F8B5044680890025002845D061680A888E
:10259000D308DB00160A012E02D11B06DD0E330222
:1025A0005207520F521ED2B21C267243801E3C4E5E
:1025B00080B2A081891C96196160226800279289E7
:1025C000E781521E12B2382B4DD00FDC5807400F56
:1025D0001BD1D8100125072817D2010079440979A9
:1025E00049188F441A1F243B292D3600582B47D0F9
:1025F00006DC402B3BD0482B3DD0502B05D13FE093
:10260000602B3DD0FF3B012B3AD00220E289A1682C
:102610008854E089401CE081F8BD0420E081A06876
:1026200005702BE091B2204601F01EFDEEE791B25D
:10263000204601F0EFFCE9E73046FFF7C7FE1DE05A
:102640003046FFF78BFE062818D13046FFF7C4FE50
:1026500014E03046FFF782FE0028EDD13046FFF748
:10266000AAFE6840D2E73046FFF721FE06E030467A
:10267000FFF7CAFD02E03046FFF7BCFD0020C5E7CA
:10268000022D0AD2074BAD005D59002D05D0A3687D
:10269000009323460E33A847B8E70D20B6E70000A5
:1026A00040070020BC06002005480078002805D01F
:1026B00010B500F007F802F0B5FC10BD704700003F
:1026C000C406002070B5194C207801282DD16088EF
:1026D000002802D06088401E1AE002F04FFB144D23
:1026E0001449286882689047686000280FD02868DD
:1026F0000A22036810499847002808D02846FFF7A7
:102700003FFF2868EA89A96845680A23A84701208D
:102710006080A088002802D0A088401EA080E088A9
:10272000002802D0E088401EE08070BDC406002072
:10273000AC060020B8060020B4060020F1B582B037
:10274000324802F007F9324E0020307032493148E9
:102750000860334D3148286000F056FD3148FEF7DF
:10276000C5FC314800F03EFA3048FDF7F0FE304C31
:102770002E4A2D49206802F0A8F82E4802F05AFE91
:10278000286800902C4B2B4A2C482168FDF7B2FC9E
:102790002B4800F027FA2B4800F024FA2A4801F0D1
:1027A0009AFF2A482A4D00682749FF300130C5604A
:1027B0000161284800F0DCF928492748086001F049
:1027C00027F90020FEF784FD2548012707712068BE
:1027D00002F062F82882000C6882206802F05CF83F
:1027E0000014A8822B4609491E482268FFF7CFFD36
:1027F000206802F05EF8014600221A48FFF747FD04
:10280000029818490160377003B0F0BD3C06002003
:10281000C406002074050020D006002048020020D5
:10282000CC0600205806002018010020900300204C
:102830002806002018030020B8040020D001002042
:102840004401002070010020F4040020380600201C
:1028500064080020CC0400201C050020D4060020C1
:10286000840800204007002030B4C31DF9331A88C3
:102870000024520081521A885A80521C92B21A8047
:10288000802A01D300221A8000225500455F521C85
:102890002C1992B2802AF8D3E017400E0019C0110B
:1028A000988030BC0846704700210A464B00491CFE
:1028B00089B2C2528029F9D3FF30013002804280B0
:1028C0007047FF210531085E7047000010B5FEF724
:1028D000BBFD7D210901FEF788F9FEF7BDFD034828
:1028E000FFF72CFF02F0B6FF10BD00000000002033
:1028F000F0B59BB0002014900C901290139015909E
:10290000199016901790189006900A9007900890CA
:1029100009900B9000900190029003900490059014
:10292000724880690121C902084370498861886939
:10293000C9140840119000216846018640200D907E
:102940007D2000010E90FF2001300F900120684F84
:1029500010900CA93846FFF7EFFA396880208143C0
:102960003960644801786448081801680646634C79
:10297000082523782A469A4011430160602012906E
:102980000020139014907D20C00015900020169018
:1029900017901890199012AA01213846FFF716FBDC
:1029A00031683046227804263346934099430160CB
:1029B000E01F81785048081811900168A2782B46D2
:1029C00093401943016000201390149012AA102123
:1029D0003846FFF7FBFA11980168A2783346934016
:1029E00099430160E01F017943480818119001687C
:1029F00022792B46934019430160002013901490D4
:102A000012AA69013846FFF7E1FA119801682279A4
:102A10003346934099430160E01F817936486B0249
:102A2000081811900168A27995402943016000209F
:102A300013901490324870251590129512AA1946D9
:102A40003846FFF7C3FA11980168A2799640B1435E
:102A500001607868A84328437860B868802188437B
:102A6000B86008010690401007908010089000217F
:102A700008A801716846C1840A910B9106A93846DD
:102A8000FFF734FA1949012049694004174A014304
:102A900051615169022401404012009003250295C2
:102AA000002009261191F6060390019404946946CA
:102AB00005943046FFF7BAF92002009000200390F9
:102AC000029501940494694605943046FFF7AEF9E7
:102AD00060020090002003900295019404946946DE
:102AE00005943046FFF7A2F91BB0F0BD001002407C
:102AF000002C01402B590008182C014032590008C5
:102B0000CF07000010B504460078002801D000204F
:102B100013E02620005D00F0F1FD094902468842DD
:102B200008D0208B238A0146401E43439818FEF7A5
:102B30005CF82082204600F02EF8E08280B210BDC2
:102B4000FFFF00000021018270470178002902D0B8
:102B5000808A00B27047018A026A8A1A1E21415E89
:102B6000808C5143CA17120C511809140818F0E749
:102B700010B504460078002804D00020E082608A66
:102B8000208210BD201D00F09FFE26210855204602
:102B9000FFF7D8FF10BD018A428B914201D908206E
:102BA0007047828B914201D200207047C08A7047E3
:102BB00001462220085E7047002800D0C08C704774
:102BC00001460620085E7047408B7047002800D001
:102BD000C08B704701460420085E7047002800D073
:102BE000808B7047018881804188C180018C41843D
:102BF0000021816081627047816070474184704725
:102C00000122C1848A4082847047C180704770B5B8
:102C100001248C40C18305464483E003011B284600
:102C200000F00FF8E003211A284600F008F870BD04
:102C300081807047012281838A400283704701614D
:102C40007047C16070470000F0B40422825E062322
:102C500014251624C35E0026455F045F4A43002BFB
:102C600009D087684B43F91808D5002F0BDD002BDE
:102C700009DD144907E0002181600DE0002F02DA30
:102C8000002B00DA1049C3688B4202DB03698B42D8
:102C900001DD836000E081608168877F0B463B41F6
:102CA000077F3A419A18AA4202DDAE1A2A4603E08B
:102CB000A24201DAA61A224689198160F0BC10B23C
:102CC00070470000FFFFFF7F0100008070B5C51D49
:102CD000F935EA68044693891846D38980B21B0403
:102CE0001843D38A128B99B21204114302B20BB269
:102CF000001409145A4348431018C117090C081846
:102D00000614286902F0D0FAA96848434B21C9008B
:102D1000FDF781FF014630464843062148430A211A
:102D2000FDF779FFC117090C081801142046FFF7B9
:102D30009BFD70BDC169084770B50446002680340C
:102D40000546002902D0012908D015E0284600F0E8
:102D5000E9F8E08B6081002808D00DE06089002848
:102D600009D0401E0004000C608105D12969284665
:102D70008847012600E00126304670BD42681047B2
:102D8000F0B4054640352A8F0BB2534302468032D9
:102D9000978B0914794349004942CC18E60F34193E
:102DA000CB1ADE0FF318064664105B10A036BF087E
:102DB000002C43DA002B14DA04213172E11ACE1709
:102DC000B60B711889147E18D917C90BC918491484
:102DD0008B19E117C90B09194914741A548096808C
:102DE00059E0002914DC03243472CC1AE617B60B20
:102DF0003419A4143E19DC17E40BE318CC17E40BC8
:102E00005B1461189B1949145C1A5480938013E079
:102E100002233372631ADE17B60BF3189B14FE18E5
:102E2000E317DB0B1B195B14F41ACB17DB0B5918D8
:102E300049140B1953809480D68043E0002B14DB97
:102E400001213172E11ACE17B60B711889147E1860
:102E5000D917C90BC91849148B19E117C90B0919DE
:102E600049145380741A96802BE0002915DC052341
:102E70003372631ADE17B60BF3189B14FE18E317B0
:102E8000DB0B1B195B14F41ACB17DB0B5918491415
:102E900056800B199480D38014E000243472CC1A2D
:102EA000E617B60B3419A4143E19DC17E40BE3182B
:102EB000CC175B14E40B9B196118491456805C1AFB
:102EC0009380D480002E00DC0026B1B26987002BED
:102ED00000DC00239BB2AB87002C00DC0024A4B2F2
:102EE000EC87568B012E1AD10C26965F002E168C7D
:102EF00001DD891900E0891B69870E21515E0029D7
:102F0000118C01DD591800E0591AA9871021515E72
:102F10000029118C01DD611800E0611AE9878169DF
:102F2000F0BC084781680847C168084741690847FD
:102F3000F0B5064689B040680590B0693746049000
:102F4000002580373D6330467D63C030BD63044655
:102F500085714248016A42488143404801624149C3
:102F6000716041490420B161E07101463046A030F2
:102F700007900172304600F075FAF86C3346603005
:102F8000427CC63339463548029302F0ABFC3046EA
:102F900000F016FA35497160E57107980572A57160
:102FA000304600F05FFAF86C39466030427C2B48BE
:102FB000029B02F097FC304600F002FA07980421C9
:102FC0000172386B00093863786B00097863B86B5D
:102FD0000009B8630599716004992548B161817948
:102FE000244808180368244A082796793946B140CE
:102FF0008B43036003688B43036003688B43036068
:10300000164920884863208888632088C863D01FB9
:10301000017818480818016813783E469E403143ED
:103020000160D01F817813480818016893783E46E4
:103030009E4031430160D01F01790E480818016895
:1030400012799740394301600448006A04490843F3
:1030500002490862A57209B0F0BD0000002C0140D1
:10306000550500007531000845330008C5310008DA
:10307000007A0008182C0140077A0008F0B43A4B97
:103080005A687024A2435A60A822384B145CDA684C
:103090000425AA43DA608030A2001546C36C34359B
:1030A0005D592E884C329A581588314A5342062C65
:1030B0004ED227007F443F79FF19BF44142F2F02BF
:1030C0000214046BA41B9C4201DA0B8004E09442BE
:1030D00001DD0A8000E00C80446B641B9C4234DB01
:1030E00094422EDC33E0446BA41B9C4201DA4B80FB
:1030F00004E0944201DD4A8000E04C80846B641B54
:1031000002254D5F2C196442944201DD0A801FE0C4
:103110009C4201DA0B801BE00C8019E0046BA41BBD
:103120009C4201DA0B8004E0944201DD0A8000E059
:103130000C80846B641B00254D5F2C196442944203
:1031400001DD4A8004E09C4201DA4B8000E04C80C3
:103150000A8882814A88C2810A884988511849426E
:103160000182F0BC70470000002C014000240140A7
:10317000FF7F000070B4124C0246C032D3796568FC
:103180007026B54365609479102C13D280309B0073
:103190001C46C56C34342C592488056B64190463AF
:1031A000C46C4C33E3581B88446B1B194363907900
:1031B000401C907100200880488070BC704700005F
:1031C000002C014070B402460E4BC030C4795D68DB
:1031D0007026B5435D600023A825AB548579102D7A
:1031E0000BD28032A400D56C4C342C592488956BBA
:1031F000641994638279521C82710B804B8070BC7D
:1032000070470000002C0140F8B43B494B68042291
:1032100093434B600A604B68082293434B600A60FB
:10322000364C22680123DB041A4322608022344B8F
:10323000D2431A61DA6880252A43DA600246C03236
:1032400015886D1E5D620123A5699B051D43A5615F
:10325000A4691C402B4B0094DC68CD142C43DC602B
:103260008B681724A3434C0523438B608B68DB4397
:10327000FCD58B68DB435B07F8D58B68DB43DB064B
:10328000F4D58B68DB439B07F0D58B681E4C23403D
:103290005B1C8B600B68DB43DB07FBD11C490446DE
:1032A0000E781C4D194BC23474510D781B4E1A4CBC
:1032B000AC5103240E781D1D77593F0C3F04274362
:1032C000775109785D58012425435D500C494B68BE
:1032D0007025AB434B60124D0B6A2B430B620B15F1
:1032E0008030C363002353721372D3724383086820
:1032F00020430860F8BC70470024014000100240E1
:10330000002C014000580140E8FFFF7F0000024010
:103310000E7A00080C0002404024014008000240E0
:1033200055050000C0300021437A0A46012B01D127
:1033300002214272037A012B02D140231943027207
:103340000846704710B501229202BC210A5001467E
:10335000C031CB79A82213540988491E89B200F0E4
:103360006DF910BDF8B502460346C03280331488AB
:103370005988A446641AA6B2DC6C9D884034E78C58
:10338000BE4206D90423A8210B541188491E89B2D4
:1033900013E04D1BADB27600AE4202D2228D891AE7
:1033A0000AE0791889B28C4507D80124E402DC636D
:1033B00012885200511A491E89B200F03FF9F8BD37
:1033C000F0B42349CA6852085200CA600022A923F7
:1033D0001A544B6C0124E403A3434B640446C034E9
:1033E000A37A012B10D08030C36C7825ED5C022DC0
:1033F0000AD15D681B69AB62C56CAB686D699D6283
:10340000C36CD8689B6983621348124B00781D58BF
:103410000226B5431D5011488568114F3D401035B7
:103420008560C5686D086D00C5605E60042303603B
:10343000C3683725AD01AB43C360E272321F0A6136
:103440000869C043C007FBD10A61F0BC70470000A7
:10345000002C0140000002400E7A000800240140C8
:10346000E8FFFF7FF0B40023A92213540246012392
:10347000C032D372138836495B084B6313885B08EC
:103480008B6313885B08CB631288521F0A64012484
:10349000E4430C610A69D243D207FBD10C614A6C48
:1034A00001239B021A434A644A6C5B011A434A6433
:1034B0008030C26C78239B5C022B0ED10D6A254BA9
:1034C000AB435368126939D09A62C26C93685269EF
:1034D0009A62C26CD36892699A62C06C1E4B60306B
:1034E000007C5A69D208D20002435A611C4A1B4828
:1034F0001578465976087600465102261578071D3C
:10350000EF593F0C3F043743061DAF5116788759DA
:1035100001252F43875104261E60DF68BF08BF00C6
:103520002F43DF604660127883580226334383506E
:103530000C61C8682843C860F0BC70479A61C36CCE
:103540009A685B699361C26CD36892699A61C4E7B7
:10355000002C0140550500000024014000000240FD
:103560000E7A0008F0B401468031CC6B0A461C4943
:10357000CB680325AD02AB432343CB60CB680C156E
:103580003725AD01AB432343CB600346A0331E4632
:103590001B7AD56CEB1860339B7C9D00CB680427AD
:1035A000BB432B43CB60337AD56C9B001C33EB5869
:1035B0008B62D36C4D6960331B7CED08ED001D43BD
:1035C0004D61084D6B687026B34333436B608B6865
:1035D000054D2B401B1D8B60D463F0BCA63070479B
:1035E00000240140002C0140E8FFFF7F0123A922B5
:1035F00011491354DA1E0A6100224A638A63CA63BE
:103600000A69D243D207FBD14A6C0123DB031A4378
:103610004A648030C16C7822525C022A0AD14A681E
:1036200009699161C26C916852698A61C16CC8680C
:103630008969816170470000002C014010B4034685
:103640008033DA6C40301268448F5463848F946303
:10365000C08FD063116450684006400F00D0012035
:103660001988012902D101200021198010BC70475E
:103670001E480621007802464A431D49895C0129FB
:1036800032D1F0B481001B48042443581B681C60ED
:1036900043581B68DC68A408A400DC6043581B681E
:1036A000DC683725AD01AC43DC6044582368A4686E
:1036B0005D69ED08ED0025435D6143581E791D6885
:1036C0000123B4061F46B7403C436403640BAC625D
:1036D000405800688168084C2140091D81600448F9
:1036E00010184370F0BC704770470000D8060020E7
:1036F000BC0800208C080020E8FFFF7FF0B4062201
:1037000007465743444A0021D55D13460424FB185D
:10371000002D24D106254D43565D012E0DD1AE1846
:103720007579854208D95D71197106214D43707113
:10373000A9180871042100E00C46491CC9B20429EB
:1037400012D0E7D30121D155002159703349062504
:103750000C786C43A2185278012A00D008703049C6
:10376000C97A002911D053E0042C0BD00621614303
:103770008D18697959711C71062461436871891823
:103780000871DFE725490870DCE7264A80001158F8
:103790000968CC68A408A400CC6011580968CC68FA
:1037A0003725AD01AC43CC6014582168A4684D693D
:1037B000ED08ED0025434D6111580D790E68AC06FA
:1037C0000121A9400C436103490BB1621158042443
:1037D00009680C60115809688C68134D2C40241D31
:1037E0008C60105800680168C9434907FBD4006C1D
:1037F00058800A4801788900515801220968CC682C
:10380000A408A4001443CC605979017002205870B8
:103810005888F0BC70470000BC080020D806002083
:10382000080300208C080020E8FFFF7F70B50F4CD4
:10383000A078012818D16078FFF760FFA0800146CA
:10384000607806220A4B4243D2185278002A01D0EF
:103850000222A270074AC5005359002B04D000264B
:10386000A670AA185268984770BD0000D8060020BC
:10387000BC0800209C08002010B4104A06211078D3
:103880000F4B4143C9184B78012B12D183000D48CF
:10389000C35818680468E44364070AD4006C48807D
:1038A0000220487018680123C468A408A4001C43BF
:1038B000C4604879107010BC70470000D806002022
:1038C000BC0800208C08002070B40246FF201E4B6C
:1038D00000218C001C59002C32D026791579AE427B
:1038E00005D124681568AC4201D108460421491C61
:1038F000C9B20429EDD3042820D281005A500023F4
:10390000124CC100635011688C68E443E4070ED088
:103910008C681725AC43ED072C438C6011688A68CE
:10392000D243FCD58A680A4C2240521C8A60062188
:10393000084A4143535489184871087170BC704754
:103940000428D4D90846D2E78C0800209C0800201F
:10395000E8FFFF7FBC08002010B5C368426981689A
:10396000012B03D9046961185B1E04E0012B03D10C
:10397000416851430023C36081601830FDF7A4F80B
:1039800010BDF7B5054684B0012002900E462846CA
:1039900018306A69A968FDF797F800900698002822
:1039A00012D00098301A019001F0C0FD074600982F
:1039B00001F0BCFD0446304601F0B8FDA7420CD230
:1039C00087420CD23C460BE0304601F0AFFD686107
:1039D0007043A8600020E86016E0844200D30446EB
:1039E0006C6100986E606043A8602868069948433F
:1039F0007D21C900FDF7F9F8401CE860019A0146F5
:103A000062431046FDF707F92861029807B0F0BD40
:103A100010B5002181604160C160016101214161F7
:103A20001830FDF743F810BD0146C9680020002991
:103A300000D1012070470000FFB50C463821074631
:103A40000F404107490F491ECAB294461C267243D3
:103A5000C108F94E4007921983B0400F401E0092F2
:103A6000C0B206224243F54EC90096190025F44A19
:103A70008000182F7ED004DC082F0AD0102F04D12C
:103A800024E0202F77D0282F76D00725284607B0AE
:103A9000F0BD002B71DD482908D088290AD0C8293B
:103AA0000DD00525059901200880EFE7304600F08C
:103AB0004FFF02E00098FEF706FC2070F2E7E149B4
:103AC00008580028F9D0FCF7F8FCF6E7022B54DB85
:103AD000992636018B1BDC4FB14277D03EDCDB4EA2
:103AE0008B1BB14273D023DCD94E8B1BB1427DD0EE
:103AF0000EDCD84BCA1A99426FD004DC902963D0EF
:103B0000D02967D167E0802A69D0C02A62D16BE0F2
:103B1000FF260136991BB34277D004DC802B6AD094
:103B2000C02B57D16EE040296BD0802952D1D2E012
:103B30009906890E4ED1991115294BD20B007B4461
:103B40001B79DB189F4446D4464646666B70464652
:103B50004646464675797D82868A8E00052636025F
:103B6000991BB34271D019DC9906890E32D1991193
:103B7000142903E0F1E025E1A3E121E12AD20B00C1
:103B80007B441B79DB189F44E375797D81E3E385F2
:103B9000898D91969AE3E3E3E3E3E3E48B069B0EDE
:103BA00018D189111739142914D20B007B441B79C1
:103BB000DB189F44A2A4A6A8ADAFB4B9BCCDCDCDAF
:103BC000CDCDCDCDCDCDC1C7385893E04EE08AE004
:103BD0000CE002E0BCE0385887E0385817E09E4916
:103BE0000858FEF7F7FFABE09B490CE09A490858EC
:103BF000FEF7DEFFA4E099490858FEF7EBFF9FE0CF
:103C000003E060E0954908586FE094490858FEF7D2
:103C1000CFFF95E09249085801F046FB90E09149AA
:103C20000858FEF792FF8BE08F490858FEF749FECF
:103C300086E00098FEF749FB82E00098FEF745FB1E
:103C400037E00098FEF749FB7AE082E00098FEF743
:103C500044FB2EE00098FEF762FB71E00098FEF74F
:103C60005EFB26E00098FEF762FB69E00098FEF735
:103C70005EFB1EE00098FEF782FB61E00098FEF715
:103C80007EFB16E00098FEF772FB59E00098FEF705
:103C90006EFB0EE0105800F02DFD51E0105800F0C2
:103CA00031FD4DE01058FCF792FE49E01058FCF74A
:103CB0008EFE001444E01058FCF781FE40E01058DE
:103CC000FCF77DFEF5E7105801AA6946FCF78BFE6C
:103CD0006846008834E010586A4601A9FCF783FE64
:103CE000684600882CE010583430FEF769FF27E062
:103CF00010583430FEF76EFF22E0385811E0385883
:103D00001CE0385808E055490858FEF767FF17E0EF
:103D100052490AE051490858FEF74EFF10E04E495B
:103D20000858FEF75BFF0BE04B49085806E04A498C
:103D30000858FEF741FF03E010583430FEF746FF05
:103D4000208006E010583430FEF748FF208000E065
:103D5000052505980221018098E6042B30DB98297F
:103D60001BD004DC18290BD0582905D10CE0D82928
:103D70001CD0FF3919291ED0052504200599C0E063
:103D8000304600F0E0FD14E00098FEF795FA3C2183
:103D900048430A21FCF73FFF0BE00098FEF7D9FAF1
:103DA0003C2148430A21FCF736FF02E01058FCF79B
:103DB00057FE2060E1E71058FCF756FE2060DCE774
:103DC000082563E60022202909D060291AD0A029FD
:103DD0002BD0E0295DD005980525028056E6002508
:103DE000059E01212148318005E021703188401C69
:103DF000491C3180641C0178002960D037889F42BB
:103E0000F3DB5AE0002505990120194E088005E0F2
:103E100020700888641C401C0880761C30780028BC
:103E20004DD00F889F42F3DB47E012490025085828
:103E3000059901260E8025E0400700203C06002061
:103E4000EC060020E8060020F006002050040000E8
:103E500010020000100100002C0600203006002097
:103E6000E40600203406002038060020EC5B000841
:103E7000CB5B0008F406002026700E88401C761CE0
:103E80000E80641C0678002E19D00F889F42F3DB49
:103E900013E05B4901260958059800250680243166
:103EA00005E026700688491C761C0680641C0E7886
:103EB000002E04D007889F42F3DB0625E6E522703A
:103EC000E4E5FF26E936A71C8A1BB14257D00FDC78
:103ED0000C260E22A8292BD004DC282913D068290F
:103EE0000BD11AE0E8292DD0FF39A92905D133E0FB
:103EF000402A4FD0FF3A812A75D0052520880599A0
:103F0000801C0880C2E50A2020800C2B46DB0A2298
:103F10003C493846FCF793FEF0E73C2121803E2BDC
:103F20003CDB37493C2209583846FCF788FEE5E778
:103F30002280102B32DB34490E2209583846FCF718
:103F40007EFEDBE726800E2B28DB30490C22095849
:103F50003846FCF774FED1E73E1D0098FEF7F1F9F4
:103F60003C2148430A21FCF756FE3880000C78803B
:103F70000098FEF7E4F9308006202080BEE7042098
:103F80002080BE1C0098FEF7E0F938800098FEF70C
:103F9000D6F933E0282020802A2B01DA0825ADE766
:103FA0000026604687001A486A46C0593146FCF729
:103FB00087FA69460220085E3C2148430A21FCF743
:103FC0002AFEF100024608194280121482806946D6
:103FD0008988C1806946761C0988F6B20181052E60
:103FE000E1D38BE7FFE704202080BE1C0098FEF79A
:103FF0009EF938800098FEF79AF9001430807DE72A
:10400000FC060020045C000800070020F8060020E1
:10401000E8060020F0B50446456883B0806800904B
:10402000002268468280A68901200FB2E281002E1C
:1040300017D02846B61EB6B2AD1C00883B4601AA72
:104040000099FFF7F9FC00280BD169468988009A8E
:1040500052180092E2895218791AE2810FB2002EAA
:10406000E7D103B0F0BD0000F3B591B011980C2179
:104070004468806808901198415E00200C90119A65
:104080000D90D08100297DDD0D98891E401CC0B2A5
:104090000D9020460AB2A41C04940392068838218D
:1040A00037460F40710700200790490FF008491E5E
:1040B000C9B21C25F94E4D43C000AD1902AB182FF3
:1040C00073D004DC082F17D0102F04D13CE0202F30
:1040D0006CD0282F6BD007200790002069460881FC
:1040E0006A4612890399049B891A9C180D9A0798AD
:1040F00009B2012A7ED06AE22178482809D08828AE
:104100000AD0C8281ED005200790012069460881E2
:10411000E6E704200790F8E700290AD00129F4D146
:104120002846FEF716F9014600222846FEF7AFF8AA
:10413000EBE72846FEF717F9014600222846FEF76E
:10414000ADF8E2E70420DFE7A12212012488831AF8
:10415000904278D046DCD24A831A904273D02DDC4C
:10416000D04A831A90426FD012DCCF4A831A904211
:104170006BD008DC902869D0D02868D0FF3811288F
:104180007DD192E048E2402B70D0802B77D1A1E026
:10419000FF220132981A934269D009DC402B67D084
:1041A000802B72D0C02B6AD1CAE044E16FE197E165
:1041B000C0286BD0FF38012861D1E7E09806800E57
:1041C0005DD1981112285AD2010079440979491811
:1041D0008F4455B3B35555555555B3B3B3B3B3B376
:1041E000B398A6B3132080011A1A83422BD016DC91
:1041F000980600E0E9E1800E41D1981113283ED2E3
:1042000001007944097949188F443997979797C8DD
:10421000C8C8C8C8C83939393939393B3B001B20AF
:104220008001131A824278D017DCA048131A824208
:1042300074D00DDC402A06D00B20C001101A6ED0BD
:1042400040281CD1B3E078E04BE035E01FE025E0EA
:10425000402B6FD0802B12D1BEE0C02B6BD008DC7E
:10426000402B69D0802B0AD1C9E008E02BE076E032
:104270003CE00D208001181A6FD040286ED0052038
:1042800007900220694608812AE734E076E08848F2
:104290008900405821B2FEF7CBFCF2E78448890040
:1042A000405821B2FEF7B1FCEBE781488900405845
:1042B00021B2FEF7A3FCE4E77E488900405821B212
:1042C000FEF7B6FCDDE77B488900405821B2FEF7D7
:1042D0009CFCD6E777488900405821B2FEF78EFC57
:1042E000CFE775488900405821B254E072488900F0
:1042F000405821B247E070488900405821B2FEF78B
:104300007DFCBEE72846FEF712F8010C0904A0B2B6
:1043100001432846FEF745F8B3E764E04EE03FE08E
:104320002846FEF704F881B2200401432846FEF730
:1043300038F8A6E749E067E05CE004200790A0E7D2
:104340008E005E4D01AAA85905A9FCF74CFB6946F1
:1043500004228A5EA85921B20DE05CE063E08E0081
:10436000564D06AAA85901A9FCF73DFB6B4604214E
:10437000A85922B2595EFCF73BFB82E74F488900FF
:10438000405821B23430FEF740FC7AE74B488900B0
:10439000405821B23430FEF74BFC72E704206FE73F
:1043A0004348890040582146FEF744FC69E74048ED
:1043B000890040582146FEF72AFC62E73C48890004
:1043C00040582146FEF71CFC5BE73B4889004058FB
:1043D0002146FEF72FFC54E7374889004058214614
:1043E000FEF715FC4DE73448890040582146FEF79A
:1043F00007FC46E72F4889004058214618E02D4821
:104400008900405821460BE02A488900405821463F
:10441000FEF7F6FB35E7294889004058214634303D
:10442000FEF7F5FB2DE7254889004058214634303A
:10443000FEF700FC25E761880A0421880A43D82892
:1044400023D006DC182811D058280FD0982807D17F
:104450000FE0FF38193818D0402816D0802814D023
:104460000520079004206946088139E6042007905A
:10447000F8E710460A2148433C21FCF7CCFB01B287
:1044800000222846FDF703FFECE70420E9E70421BA
:10449000079101216D462046298117E04007002041
:1044A000900500009002000090010000000600004E
:1044B000F00600202C06002030060020EC0600202C
:1044C00021701988401C491C1980641C017800293E
:1044D00003D01D889542F3DB02E600202070FFE543
:1044E00023886F469E1CB6B2A41C3E81964203DD13
:1044F000002038810A2016E0FF26A936821BB04230
:1045000015D008DC282810D068280ED0A8280CD098
:10451000E82807D109E0402A19D0802A21D0FF3AA3
:10452000C12A49D005200790DAE50420FBE760881E
:104530002188000408430A214843A4883C21FCF751
:104540006AFB01B222462846FDF7A1FEC8E5A07825
:1045500021880004084301B2A2882846FDF79EFE88
:10456000BEE55805060E580701D1052E01D90A20CF
:10457000D9E70025002EAFD988000E90E9000F1969
:10458000B878615A000408430A21484380B23C21AC
:10459000FCF72BFB6946C884B8880885F8888884AE
:1045A00020490E9809AA08582946FBF768FF6D1C98
:1045B000EDB2B542E2D393E52188628889B2100456
:1045C00001432846FDF7EDFE8AE500291FD0129A27
:1045D000002A1ED0089A1070089A119B521C08924B
:1045E000119AD289521CDA81129A521E92B21292F8
:1045F000002805D001220C92072810D00A280ED0DE
:10460000002900DD40E50C98002805D007E00C905B
:10461000FAE708200C9002E011980021C1810C9863
:1046200013B0F0BDE8060020F8B505460446203575
:10463000A879FFF763F81449074688421ED06979C4
:10464000206A490047520022268B1046002E07D9C7
:10465000216A4300CB5A401C9A18C0B28642F8D84F
:1046600031461046FCF7C1FAE080A7806879761ED3
:10467000B04201DA401C00E000206871204600F0E2
:1046800005F82081F8BD0000FFFF0000C188428BC3
:10469000914201D902207047808B814201D20420CF
:1046A00070470020704710B4418B828B038B8918B0
:1046B0004A080021002B07D94C00036A491C1A53F1
:1046C000038B89B28B42F7D88280C28000212030D0
:1046D000417110BC704710B504460C30FFF7F4F878
:1046E000262108552046FFF7DEFF10BD01460C20AD
:1046F000085E704701460420085E7047014610209E
:10470000085E704710B50C21415ECA03521A14218D
:10471000415E1046FCF77FFA00B210BD70B4002372
:10472000CE5E0125C4780278002E02DA714289B289
:1047300000E00988868A8E4200D20123C68A8E4212
:1047400000D901231221415E002902DA494289B2CF
:1047500000E0418A068B8E4201D3002B04D0A24296
:1047600005D2521CD2B202E0A24200D20022A242E2
:1047700000D100250270284670BC704770B50178E2
:104780000546002907D06C68E868012805D9AA69A0
:104790001419401E06E0AC68F6E7012803D16888CA
:1047A00004040020E860012905D0E017000C00197E
:1047B0000014AC6070BDE017000C001906146869A5
:1047C000FFF794FF301A01B22869FEF73DFA0104A1
:1047D0006C60A96070BD0178012905D110B5006930
:1047E0000021FEF709FA10BD7047F8B504460078BD
:1047F000012617460D4600280DD06068C117090C28
:10480000081800140090E08BA84215DB2420205EDD
:10481000A84211DC12E0204600F051F80090E08C34
:10482000A84205DA2820205E0026A84204DC27E002
:104830002820205EA84208DD002621E0208CA84226
:1048400003DD2220205EA842F6DB002F10D0658019
:10485000A08B7D217843C900FCF7C7F9401CE060BC
:104860000099691A0A0401461046FCF7D4F906E0DB
:1048700021782804012905D0A0600020E060A06113
:104880003046F8BD6060F8E710B504464069FFF7B0
:104890002DFF0004606010BDC28D1146028E88B2EB
:1048A0001104084370474068C117090C0818001428
:1048B000704701462C20085E704740697047806849
:1048C000C117090C081800147047426101612A21C0
:1048D000095C0170818D09044160C18D090481600A
:1048E00000214180C1608161704701700021C16079
:1048F0007047416170470021C16081617047027853
:1049000000210B2A04D1092101700021818001219D
:104910000846704710B4448803780C43944344809D
:1049200082880A4382800A2B07D0002C02D00A21F9
:1049300001700B4610BC18467047002CFAD10B21B1
:1049400001700B46F6E781884088000408437047F1
:10495000007870470021017041808180704710B558
:1049600002780024152A73D213007B441B79DB18CC
:104970009F440D142A2D4E5C6164676A6E6E0A1B9B
:104980002025383D4955440000296DD060E00329B9
:104990006AD0012968D00C2966D05DE0072963D070
:1049A0000D2961D00E295FD052E00E295CD0072975
:1049B0005AD04DE00F2957D0072955D048E0022999
:1049C00052D0072950D043E007294DD040E00729B5
:1049D0004AD0102948D0042946D0112944D00129B1
:1049E00042D035E011293FD007293DD030E01229CF
:1049F0003AD0072938D0142936D029E0122933D0EB
:104A0000072931D024E004292ED007292CD01FE01B
:104A1000132929D0072927D0052925D018E00429F2
:104A200022D0072920D005291ED011E006291BD04D
:104A3000072919D00CE0072916D009E0082913D05E
:104A400006E0092910D003E000290DD00C290BD075
:104A5000032907D0012905D0072903D0002280218E
:104A6000FFF758FF204610BD01240170FAE700004F
:104A700010B5084C2078022805D1FCF775FCFCF72E
:104A800009FD00202070C0B2401C2070FDF70CFE14
:104A900010BD0000DE06002010B53148012102687B
:104AA0008A430A4302600168C907C90FFBD02D4C35
:104AB000206801210904084320602068C043800366
:104AC000FBD4606B012108436063606BC0438007C7
:104AD000FBD4606BF8218843802108436063206821
:104AE00009030843206060687B21C90388431121C2
:104AF000090408436060E06A00090001E062206880
:104B000001210906084320602068C0438001FBD4CE
:104B10006068F0218843606060680721090288436B
:104B200060606168022089088900014361600C218E
:104B3000606808400828FBD10B48FDF7D1F9022036
:104B4000FCF72AFC002801D072B6FEE7606B042156
:104B500088436063206B80088000206310BD0000E4
:104B60000020024000100240006CDC027047000090
:104B700010B5104CE06C00680169C943C90708D141
:104B8000C168C943C90704D1891E01610A48FEF7FB
:104B9000E9FCE06C00680169C943090609D4C168F1
:104BA000C943090605D48021C94301610248FCF7C5
:104BB00061FB10BDC802002048020020034900200C
:104BC0008988002900D1012070470000C406002018
:104BD00010B505480068FEF7F3FB0022802103486A
:104BE000FFF798FE10BD0000CC0600203C06002018
:104BF000F0B58DB0002055490B90881C07904A8B6A
:104C000068460282898B41825148504C00781328B3
:104C100009D1504D2868FEF707FF002803D1286806
:104C2000FEF79AFE20824C480068FFF746FE099086
:104C3000FFF760FD01900998FFF760FD47480AA95A
:104C40000068FEF79BF8FEF713FD0A98FDF7CAFB14
:104C500008900199FDF7ECFB05461020205E29B273
:104C6000411A3F480068FDF7EFFF06461220205E1C
:104C70002914411A3B480068FDF7E6FFB1B2000471
:104C8000014339480068FCF743FA07460998FFF7E3
:104C900035FD38460199FDF70BFC0646FEF7ECFDA5
:104CA0002E4831460068FEF76BF8284A0146D78245
:104CB000380C10836846008D20806846408D6080E7
:104CC0000898A0800898320C000CE080A581280C80
:104CD000E08107980129068342830198208417D038
:104CE0002248FBF7B4FB0546A08869468882E08825
:104CF000C8821F4800F0DDFA6946088304A91D48F0
:104D0000FBF754FC1B48FBF7E5FD002D06D008E03F
:104D1000002201210E48FFF7FDFD13E01548FBF7C7
:104D20008AFE0B48FFF714FE042803D0132801D095
:104D3000052807D10F48FFF7DDFC694608800E48BB
:104D400000F0FBFA0B980DB0F0BD000064080020E5
:104D50003C060020D406002028060020CC060020B7
:104D60002C06002030060020D0060020D0010020B4
:104D7000F4040020900300201803002070B582B0D6
:104D80000020694608809B48FBF7F6FC9A480068BB
:104D9000FDF79CFF9948FFF7DBFDC01E11281FD2CD
:104DA00001007944097949188F440852D0E7F6F494
:104DB000F31A1A1A1A1A1A1C2B38A9009048FDF770
:104DC00094FA01468F48FBF7B9F98F480068FEF75F
:104DD0000DFC142000F080F910218848FFF7BFFD7A
:104DE00002B070BDFFF7EAFE0028F9D08648002126
:104DF0000068FDF7A1FF11218048FFF7B0FD02B068
:104E000070BD814801210068FDF796FF0028F6D0AB
:104E100012217A48FFF7A3FD02B070BD7B48012143
:104E200001717B487B490068FFF763FD7148FBF720
:104E300055FB04217148FFF792FD0028ECD00020BB
:104E4000FCF746FA70480068FEF70CFB02B070BD34
:104E50006C48FBF7A2FA00284BD06D480068FFF7BA
:104E60008DFC6D4A80B2938A190408431082000CAD
:104E7000508201A9674800F01EFA6248FBF7E7FA82
:104E80000028E3D068460421415E5A48FBF748FDFC
:104E900004465B48FDF729FAC1B25648FBF702FE0B
:104EA00021465C4800F01EFB002CCFD05148FFF794
:104EB00021FC594D0146AA881046EA8880B21204A6
:104EC0001043FDF7B5FA554C06462068FEF7A0FDE5
:104ED0001021695E00222068FEF753FD31B2962250
:104EE0002068FEF74EFD13214448FFF738FD02B05D
:104EF00070BD002210214148FFF70CFDB9E7414881
:104F0000FBF74BFA00281AD001A9424800F0D3F968
:104F10000446404800F0F8FA2043E8D04048FDF746
:104F200053FE3D4910228A5E504301463C48FDF73E
:104F300063FE05213148FFF712FD02B070BD00226B
:104F400010212E48FFF7E6FC02B070BD304C294915
:104F50002068FFF7CEFC0020FCF7ECF90020FCF7FE
:104F6000A1F906212548FFF7FAFC2068FFF78CFC21
:104F70002348FDF74FF902B070BD40200921C90652
:104F800088621F48FDF746F90020FCF78BF902B054
:104F900070BD22E018E0FFE71B480068FEF710FA3A
:104FA0000020FCF795F914480068FDF77DFC1920F6
:104FB000400100F097F840200921C90688610821C6
:104FC0000E48FFF7CCFCE2E700F092F80028DED0B4
:104FD00009210A48FFF7C3FCD9E70D480D490068CD
:104FE000FFF787FC0B4800F002FA00210348FFF7A7
:104FF000B6FCCCE790030020380600203C060020D9
:1050000040070020D0010020CC06002084080020AA
:10501000280600201803002064080020D406002081
:105020001801002005480078012806D110B500209D
:1050300000F006F8FEF7FAFB10BD7047C40600202A
:10504000F8B505461E48AE00006800901D4880591E
:10505000FDF758FD6A006946895A084007461A4814
:105060008059FDF767FE04463C43002D06D11748E2
:10507000FFF7DAFA6946098808400443E04382B240
:10508000062013496843471821463846FFF742FC7B
:105090003846FFF75DFC0A2806D00B2803D10A48E2
:1050A0008059FDF73FFFF8BD07488059FDF73AFFEB
:1050B0002846FCF70DF907488059FDF7F5FBF8BDC8
:1050C0003C59000834060020CC060020F4040020DF
:1050D0003C06002038060020014988807047000007
:1050E000C40600200149C88070470000C4060020A3
:1050F00003490020C988002900D101207047000021
:10510000C4060020026810211162006802680A4388
:105110000260704770B4026840211162026813682F
:105120000B43136002689368802423439360154AFD
:10513000056983685519203D0468ED7F08332834DC
:10514000EC5003681962C46843681419203CE47F7A
:105150001D59022635431D5103689C6801252C43C7
:105160009C60C56843685219203A0468D27F0833AE
:105170002434D45002681162006882680A43826055
:1051800070BC7047C45B000870B4134BC5684468BA
:105190005D19203DED7F6659760876006651C56839
:1051A00044685D19203DED7F0C342951C468416885
:1051B0001C19203CE47F091D65582D0C2D04154356
:1051C00065504168C06818182038C07F0A5801230C
:1051D0001A430A5070BC7047C45B000870B4134C8B
:1051E000056983686519203DED7F5E59F643F60732
:1051F00018D00C33E95003698168E318203BDB7F4A
:10520000091D5D582D0C2D0415435D508168006902
:1052100020182038C07F0A5801231A430A5070BC56
:105220001846704770BC002070470000C45B00083F
:1052300070B5194CE0694025C043400600280ADBE0
:105240001749164849784258520852004250256280
:105250001448FBF7CBFDE069C0430107102000298B
:1052600004DB08212162216801432160E169C9430F
:10527000C90610D42168C943C9060CD421688143EA
:105280002160A068A843A060A08CA0682843A0600B
:105290000448FBF75AFD70BD003801400000024091
:1052A0003E5B000858060020C18840884843000C37
:1052B0007047C088704770B50446008D00260D46C3
:1052C000012816D9216A606A4018C117090C60626A
:1052D00008180014E0816278E1695143628B504301
:1052E0000A225043FBF797FC2880A081208D401EA6
:1052F0001EE001280CD0A08928802D20005D002808
:1053000018D029462046FFF709FA0646304670BDF8
:10531000608D2880A0810020285EE1690A22484330
:10532000618B5143FBF777FC61784843E0810020B3
:105330002085E2E7E0782070E8E7F0B5044683B026
:105340000120254620350090E87C0E46012811D02A
:105350000E21208E615E401820862046627838300B
:105360000190FBF7B1FBE1884018E080287B012821
:1053700003D037E00020085E36E02E20205E0028B3
:105380000BD0401E01B2E1850E20205E00280BDB11
:105390003088228E801A07B20DE00020305E012195
:1053A0006973002121701FE0208E3288801A07B2B5
:1053B0000020C043009036227943A25E0198FBF79B
:1053C00083FB0099484300B2002F04DB0121A9743C
:1053D0003188081A04E0A97C002903D03188081814
:1053E00000B201E03020205EA08003B0F0BD70B5B7
:1053F00004460020A080E080A081E08160822070CF
:10540000206260622085214620862031087348731F
:10541000E28EE2858874C8742046383062780121B3
:105420000546FBF751FB3622A25E01212846FBF719
:105430004BFB70BD10B504463830FBF737FB2046F8
:10544000FFF7D5FF10BD01212030C1747047F0B5C2
:1054500004462030007B83B00D46002825D1002A69
:1054600025D0A08E7D215043C900FBF7BEFB401C18
:1054700080B20190208561780E270091E75F384661
:10548000FBF7C9FB0646618B0A204143E06968438C
:10549000FBF7C1FB801B00040199FBF7BCFB0099E3
:1054A0004143216265853804606203B0F0BDA58187
:1054B000618B0A204143E0696843FBF7ACFB6178EC
:1054C0004843E08100202085658503B0F0BD70B5BC
:1054D0000C460546018620466978FBF79CFBE88070
:1054E000AC8070BD10B4012200290AD0014601230E
:1054F00020310B73C48E002C03D14B73002101703B
:105500000A4610BC104670472030407B704702E0CE
:1055100008C8121F08C1002AFAD17047704700203E
:1055200001E001C1121F002AFBD1704730B40028EE
:1055300000DA404201210C461F235D1A2246AA4090
:10554000904203D2491CC9B22029F6D32046491EF5
:1055500030BC88407047000092B0FBF70DFFFFF7AA
:105560009BFAAF48416901229205114341614169AB
:1055700011400091511142690A43426142690A4057
:10558000009242694B001A43426142691A400092FC
:1055900043690122134343614269D207D20F0024B9
:1055A0000F940C940D940E940A9407940894099403
:1055B000059406940294039404940092826943151E
:1055C0001A43826182691A400B9242690A4342611E
:1055D00040690327084001970B900126092069467E
:1055E0000096C006FCF722FC0220009009206946C4
:1055F00001970494C006FCF719FC042000900920D0
:10560000694601970494C006FCF710FC082000903E
:105610000920694601970494C006FCF707FC102096
:1056200000900920694601970494C006FCF7FEFB30
:105630007D497C480A7883587C4D2B4083500A78FA
:1056400083583D03AB4375032B4383500A7883583B
:105650002025AB432B4383500A7883584025AB4326
:1056600083500B78C2588025AA432A43C2500B7836
:10567000C2583D02AA4385152A43C2500A78815870
:10568000BB029943031519438150694DA86A304301
:10569000A862A96A02200143A962A96A0420014301
:1056A000A962A96A08200143A962A86A10210843D7
:1056B000A86220200E900C940D940CA90F942846FB
:1056C000FCF71EFB281506900794089406A9099775
:1056D0000A942846FCF732FBE86804218843E86016
:1056E0006869C008C0006861E868B9028843291584
:1056F0000843E860FDF7FCF8FDF7E8F84D4800685E
:10570000FF21090288434B4908604B49681408602F
:105710004A4800680002000AB90708434749086080
:105720004549F006086046480068FF2109028843A1
:10573000B1030843424908603F4968150860404882
:105740000068FF21090488433D4908603A4928154B
:1057500008600594402002940694009003940494F9
:105760006946019607946804FCF760FB40216804D1
:105770008161080200906946049601943148FCF763
:1057800055FB31488068304900090001304388608A
:105790008868F0218843102108432B4988602948F4
:1057A0008914C0683A0690430A031043254AD06022
:1057B000D068BA0690438A031043224AD06010682A
:1057C0003A0690431F4A10601068BA0690431D4A7B
:1057D000106006916846067744770221817706A813
:1057E000FCF7C8FA681406906846067744770221E9
:1057F000817706A8FCF7BEFA144800680002000A88
:10580000B9070843114908600B4980200860104817
:10581000FBF744FEFBF7C8FE0520FBF78DFDF9E71B
:10582000001002400000024024590008EFBFFFFFB3
:10583000002401400CE400E000E100E018E400E096
:1058400008E400E0000400480C00014004E400E02B
:10585000090700200821092081B01E4AC006C26144
:10586000C161C261C16900910421121FC261C1619D
:10587000C261C16900910221921EC261C161C2610F
:10588000C169009114490122C161C261C161C1694C
:10589000009112491022C161C261C161C1690091C8
:1058A0000F491201C161C261C161C1690091520019
:1058B00081214902C161C261C161C1690091520087
:1058C00041218902C161C261C161C069009001B01A
:1058D00070470000080001000100010010000100F5
:1058E0000001010070B4521C520855010224E44327
:1058F00004611E780022102E0DD20669F643B60709
:105900000BD40461521C92B2AA4206D31E78102E08
:1059100003D20120088070BC70471E78102EECD393
:1059200070BC7047081C3044586C800000000004B4
:10593000040400000800000008000000F9FF000057
:10594000C90092015B022403ED03B6047F054806FB
:105950001107D907A2086A09330AFB0AC40B8C0C89
:10596000540D1C0EE30EAB0F72103A110112C81247
:105970008F1355141C15E215A8166E173318F91855
:10598000BE19821A471B0B1CCF1C931D571E1A1FD2
:10599000DD1F9F2061212322E522A62367242825DD
:1059A000E825A82667272628E528A329612A1F2B92
:1059B000DC2B992C552D112ECC2E872F4130FB300E
:1059C000B5316E322633DF3396344D350436BA3670
:1059D0006F372438D9388C39403AF23AA53B563CD7
:1059E000073DB83D683E173FC53F73402141CE415A
:1059F0007A422543D0437A442445CD4575461C4719
:105A0000C34769480F49B449584AFB4A9D4B3F4C2C
:105A1000E04C814D204EBF4E5D4FFB4F97503351B0
:105A2000CE51685202539B533254C9546055F555B8
:105A30008A561D57B0574258D3586459F359825A61
:105A40000F5B9C5B285CB35C3E5DC75D4F5ED75EC1
:105A50005D5FE35F6860EB606E61F0617162F162EF
:105A60007063EE636C64E8646365DD655666CF66FB
:105A70004667BC673268A66819698B69FD696D6AFB
:105A8000DC6A4A6BB76B236C8E6CF86C616DC96D08
:105A9000306E966EFB6E5E6FC16F22708370E27027
:105AA00040719D71F9715472AE7207735E73B57374
:105AB0000A745F74B27404755575A575F3754176F3
:105AC0008D76D87622776B77B377FA773F788478BC
:105AD000C77809794A798979C879057A417A7C7ACF
